:020000040000FA
:2000000002075EC2AFF5088114FFFFC2AFF5088126FFFFC2AFF5088138FFFFC2AFF5088151
:200020004AFFFFC2AFF508815CFFFFC2AFF508816EFFFFC2AFF5088180FFFFC2AFF5088178
:2000400092FFFFC2AFF50881A4FFFFC2AFF50881B6FFFFC2AFF50881C8FFFFC2AFF5088138
:20006000DAFFFFC2AFF50881ECFFFFC2AFF50881FEFFFFC2AFF508A110FFFFC2AFF508A1B8
:2000800022FFFFC2AFF508A134FFFFC2AFF508A146FFFFFF758701002274FC120724750A62
:2000A00004750B00780A12074D74021207937A007B00790812055C7402120709851D828588
:2000C0001E83E0F47003A3E0F470030201FE851D82851E83E0F8A3E0F9E84970030201FE0A
:2000E0007402120789E0687003A3E0697010750901024030C2AF75C9AB75C95B80FE53BE4E
:20010000FBE59DA2E650FAE5C654804449F5C6E59E547F644970F853C67FE59EA2E740FA80
:2001200053C680E59E547F70FA43BE049062707408F0750A00F50B780A12074D7C807D01B2
:200140007A007B00790812055C7402120709900186E0F50AA3E0F50B7409780A12076DE53B
:200160000A2408FF53B4F375BC0075BC007CFC7D077A047B0079081203837E09EFC3940A09
:20018000401C800774086E70027E567C007D087A007B00EEF91203830EEEC39F40E6A8BDEE
:2001A000851D82851E83E8F9E5BCF8E0687003A3E069704A851D82851E83E0F8A3E0F97408
:2001C00002120789E8F0A3E9F0851D82851E8374FFF0A3F07409F5D575D480750A01780AD5
:2001E00012074D74021207937A007B101205E27402120709C2AF75C9AB75C95B80FE750AF1
:2002000004780A12074D74021207937A007B00790112055C7402120709851D82851E83E02C
:20022000F47003A3E0F47003020373851D82851E83E0F8A3E0F9E8497003020373740212B3
:200240000789E0F8A3E0F9851D82851E83E0687003A3E0697010750900020830C2AF75C9E2
:20026000AB75C95B80FE74FF68700374FF69600302037353BEFBE59DA2E650FAE5C65480D8
:200280004449F5C6E59E547F644970F853C67FE59EA2E740FA53C680E59E547F70FA43BE73
:2002A000049062707408F0750A00F50B780A12074D7C807D017A007B00790112055C740233
:2002C000120709900186E0F50AA3E0F50B7409780A12076DE50A244FFF53B4F375BC0075FD
:2002E000BC007CFC7D077A047B0079011203837E02EFC39403401C800774086E70027E565F
:200300007C007D087A007B00EEF91203830EEEC39F40E6A8BD851D82851E83E8F9E5BCF8BB
:20032000E0687003A3E069704A851D82851E83E0F8A3E0F97402120789E8F0A3E9F0851DB0
:2003400082851E8374FFF0A3F07409F5D575D480750A01780A12074D74021207937A007B70
:20036000021205E27402120709C2AF75C9AB75C95B80FE43BE03120094C2AF75C9AB75C937
:200380005B80FE74F7120648E9FEAFC7740F5EF50A750B00740B780A12073AEA2400F8EBB7
:2003A000350BF9E82400E93480F9A2AFE433F50AC2AFEEC4540FFAE5C754F84AF5C7E99004
:2003C0000980F0E8A3F0A37470F0A374BDF0EC900985F0900984E054E0F0EDFCE04CF0903E
:2003E00009867420F0A37442F07409F5D575D48075D601000000000000000000000075D7F9
:2004000001E5D7A2E040FA8FC7E50AA2E092AF7F020206AEE5096007E508D2AF024033E507
:2004200008D2AF020833E5096007E508D2AF02403BE508D2AF02083BE5096007E508D2AF40
:20044000024043E508D2AF020843E5096007E508D2AF02404BE508D2AF02084BE5096007F4
:20046000E508D2AF024053E508D2AF020853E5096007E508D2AF02405BE508D2AF02085B7B
:20048000E5096007E508D2AF024063E508D2AF020863E5096007E508D2AF02406BE508D2EA
:2004A000AF02086BE5096007E508D2AF024073E508D2AF020873E5096007E508D2AF0240B0
:2004C0007BE508D2AF02087BE5096007E508D2AF024083E508D2AF020883E5096007E508E9
:2004E000D2AF02408BE508D2AF02088BE5096007E508D2AF024093E508D2AF020893E5091A
:200500006007E508D2AF02409BE508D2AF02089BE5096007E508D2AF0240A3E508D2AF02FE
:2005200008A3E5096007E508D2AF0240ABE508D2AF0208ABE5096007E508D2AF0240B3E5A0
:2005400008D2AF0208B3E5096007E508D2AF0240BBE508D2AF0208BB0002055874F6120681
:2005600048890C740F550CF50A750B00740B780A12073AEA2400F8EB3480F9E82400E9351F
:200580000BF985C70BA2AFE433F50AC2AFE50CC4540FFAE5C754F84AF5C7740A120789E018
:2005A000FEA3E0FFEE4F602CEEFAEFFB88828983E08C828D83F088828983A3A882A9838C81
:2005C000828D83A3AC82AD83EA24FF1AEB34FFFBEA4B70D8850BC7E50AA2E092AF7F03023E
:2005E00006AE74F7120648ED900980F0ECA3F0A37462F0A37473F0A3E0541FF074091207A8
:2006000089E0F50AA3E0F50BE50A333354FC900985F07406780A12076DE50A900984F0902E
:2006200009867412F0A37442F053D1FE75D601EA906271F0EBA3F0906270E0D2E1F0E0A2DC
:20064000E740FB7F020206AE251DC582C0E0E51E34FFC583C0E0E51DC3958224F910AF083A
:2006600085831E85821D800885831E85821DD2AFCEF0A3E520F0A3780AE608F0A3DEFAEF1A
:20068000F0A3E58124FBF8E608F0A3E608F0A30808E608F0A3E608F0A315811581D0E0FE5C
:2006A000D0E0F815811581E8C0E0EEC0E022851E83851D82E0A3FEE0A3F520780AE0A3F6D0
:2006C00008DFFAE0A3FFE0A3C0E0E0A3C0E0E0A3C0E0E0A3C0E010AF0885821D85831E809A
:2006E0000885821D85831ED2AFD083D08222251DF58210AF08F51D400C151E8008F51D4075
:2007000002151ED2AF851E832200C0D0251D10AF08F51D500C051E8008F51D5002051ED2D0
:20072000AFD0D022251D10AF08F51D400C151E8008F51D4002151ED2AF22700422600D18E1
:20074000C6C333C608C633C6D5E0F4182274028000C0E0F4041206EED0E012077C2275D02D
:200760000075813F751D80751E0102079B600C08C6C313C618C613C6D5E0F422CAC0E0E652
:20078000F0A308DAFAD0E0FA22251DF582E4351EF58322251DFCE4351EFD2212009912073C
:2007A000A100000080FBFFFFFFFFFFFFFFFFFFFFFFFFFFFFFFFFFFFFFFFFFFFFFFFFFFFF37
:2007C000FFFFFFFFFFFFFFFFFFFFFFFFFFFFFFFFFFFFFFFFFFFFFFFFFFFFFFFFFFFFFFFF39
:2007E000FFFFFFFFFFFFFFFFFFFFFFFFFFFFFFFFFFFFFFFFFFFFFFFFFFFFFFFFFFFFFFFF19
:20080000A021FFFF0000005C41414141FFFFFFFFFFFFFFFFFFFFFFFFFFFFFFFFFFFFFFFFCD
:20082000000102030405060708090A0BFFFFFFFF020B5B021888FFFFFFFFFFFFFFFFFFFF7A
:20084000FFFFFFFFFFFFFFFFFFFFFFFFFFFFFFFFFFFFFFFFFFFFFFFFFFFFFF021C8DFFFF0A
:20086000FFFFFFFFFFFFFFFFFFFFFFFFFFFFFFFFFFFFFFFFFFFFFFFFFFFFFFFFFFFFFFFF98
:20088000FFFFFF0218FEFFFFFFFFFFFFFFFFFFFFFFFFFFFFFFFFFFFFFFFFFFFFFFFFFFFF5D
:2008A000FFFFFFFFFFFFFFFFFFFFFFFFFFFFFFFFFFFFFF021737FF0000B4000028002800F8
:2008C000283075A000A000A000A00000080008E001F000100010001000100010001000503A
:2008E000005000500010001000D0070000000000000F00010005003075070010000100810E
:20090000FF00000000FFA51EC31EAB1EFF02020208025000A0000000E8030225C00100009A
:2009200014C00219C00100009B08021FC0010000B9020219C00100009C080221C001000063
:20094000CF020219C00100009D080223C0010000D1020219C00100009E080239C008000007
:20096000D2020219C00100009F080227C0010000A008FF0100FF200225C001000075BF0251
:2009800019C001000004090229C00000000000021DC00300001F037B247B247B247B247B8A
:2009A000247B247B247B247B247B247B247B247B241B273327152702020202020202020231
:2009C000010D00000010010225C00100000EC00219C001000045090243C0010000440702C5
:2009E00019C001000046090241C00100002DC00219C00100004709023FC00100002BC002C2
:200A000019C00100004809023DC0010000C5BE0219C00100004909023BC001000047C002F3
:200A200019C00100004A090249C00100000FBF0219C00100004B090237C00100008DBE0238
:200A400019C00100004C090235C00100003FBF0219C00100004D090233C00100004E091CD6
:200A60000225C001000011C00219C0010000ED09102EBE0200007507021DC0030000770711
:200A8000021BC00100004DBF0219C0010000ED09103EBE0200007607021DC00300007D07A9
:200AA000021BC00100005ABFFFFFFFFF00080101000302010600000000000000000000002D
:200AC0000000000000000000000000000000000000FFFF0110002000E803E5C754F84405BB
:200AE000F5C779012200000080FB120ADAB90003020B45E479407808B800028004F709D8EC
:200B0000FCE479487802B800028004F709D8FCE490028078C579068002F0A3D8FCD9FA7AC0
:200B2000447B089008B6782579038015E493A3AD82AE838A828B83F0A3AA82AB838D828ED4
:200B400083D8E9D9E77582E37583D67407120B6D7582E575830A7400120B6D75D0007581CD
:200B60007F753E80753F02759F00020AEAC09FF59FE473D09F22D083D082C09FE493C0E00D
:200B8000740193C0E0740293F59F22E066701008A3E066700A08A3E066700408A3E0662245
:200BA000E4936670130874019366700C08740293667005087403936622C3E7960809E7968F
:200BC0000809E7960809E79622C3E09608A3E09608A3E09608A3E09622C021C3E096F521E9
:200BE00008A3E096422108A3E096422108A3E09645217001D3D02122C3E49396087401932F
:200C0000960874029396087403939622080808EAC0E0EBC0E086F0E7A4FA180986F0E7A483
:200C20002AFA180986F0E7A42AFA180986F0E7A42AFA1986F0E7A4FBE5F02AFA190886F05F
:200C4000E7A42BFBE5F03AFA190886F0E7A42BFBE5F03AFA18180986F0E7A4C5F02BFBE490
:200C60003AFA1908E7C5F0C6A426F6E5F03BFBE43AFA1886F0E7A4F6E5F00826F6E43B08AB
:200C8000F6E43A08F6D0E0FBD0E0FA226016080808C6C313C618C613C618C613C618C6137C
:200CA000C6D5E0EA227009080808226016181818C6C333C608C633C608C633C608C633C665
:200CC000D5E0EA22E627F60809E637F60809E637F60809E637F622E026F608A3E036F60807
:200CE000A3E036F608A3E036F622E026F008A3E036F008A3E036F008A3E036F022C3E69701
:200D0000F60809E697F60809E697F60809E697F622C3E096F008A3E096F008A3E096F008DC
:200D2000A3E096F022E056F608A3E056F608A3E056F608A3E056F622E056F008A3E056F0BE
:200D400008A3E056F008A3E056F022E0F608A3E0F608A3E0F608A3E0F622E6F008A3E6F0FD
:200D600008A3E6F008A3E6F022E0FAA3E0FBA3E0FCA3E0FD22EAF0A3EBF0A3ECF0A3EDF07F
:200D800022E0F8A3E0F9A3E0FAA3E0FB22E8F0A3E9F0A3EAF0A3EBF022CAC0E0E6F0A30864
:200DA000DAFAD0E0FA22CAC0E0E0A3C582CCC582C583CDC583F0A3C582CCC582C583CDC528
:200DC00083DAE6D0E0CA22C3E498F8E499F9120E088026C3E49AFAE49BFBE920E7E9120E0B
:200DE00008E498F8E499F922C3E498F8E499F9120E08E498F8E499F9C3E49AFAE49BFB2249
:200E0000EB20E7CFE920E7E0B90010BB0008E88AF084F8AAF022E4FBC8FA22EB70227B1050
:200E2000C833C8C933C9335007C39AC3DBF280069A50012ADBEAC833F4C8C933F4C9FA22C7
:200E400075F008E4C833C8C933C933C99AC99B5004C92AC93BD5F0ECFBC833F4C8E4C9FA6A
:200E600022600D08C6A2E713C618C613C6D5E0F322600C08C6C313C618C613C6D5E0F422DA
:200E8000700422600D18C6C333C608C633C6D5E0F41822253E10AF08F53E400C153F800886
:200EA000F53E4002153FD2AF2200C0D0253E10AF08F53E500C053F8008F53E5002053FD216
:200EC000AFD0D022253EF58210AF08F53E400C153F8008F53E4002153FD2AF853F832225CD
:200EE0003EF582E4353FF58322253EFCE4353FFD22E473253EC582C0E0E53F34FFC583C075
:200F0000E0E53EC3958224F810AF0885833F85823E800885833F85823ED2AFCEF0A3E5208A
:200F2000F0A37821E608F0A3DEFAEFF0A3E58124FAF8E608F0A3E608F0A3E608F0A308089B
:200F4000E608F0A3E608F0A315811581D0E0FED0E0F8158115811581E8C0E0EEC0E02225EE
:200F60003EC582C0E0E53F34FFC583C0E0E53EC3958224F910AF0885833F85823E80088593
:200F8000833F85823ED2AFCEF0A3E520F0A37821E608F0A3DEFAEFF0A3E58124FBF8E608F1
:200FA000F0A3E608F0A30808E608F0A3E608F0A315811581D0E0FED0E0F815811581E8C0B5
:200FC000E0EEC0E022853F83853E82E0A3FEE0A3F5207821E0A3F608DFFAE0A3FFE0A3C024
:200FE000E0E0A3C0E0E0A3C0E0E0A3C0E0E0A3C0E010AF0885823E85833F800885823E85E0
:20100000833FD2AFD083D082020B73853F83853E82E0A3FEE0A3F5207821E0A3F608DFFAD0
:20102000E0A3FFE0A3C0E0E0A3C0E0E0A3C0E0E0A3C0E010AF0885823E85833F80088582C0
:201040003E85833FD2AFD083D08222C0D0253EC582C0E0E53F34FFC583C0E0E53EC39582AD
:2010600024F310AF0885833F85823E800885833F85823ED2AFC8F0A3E9F0A3EAF0A3EBF042
:20108000A37921E709F0A3D8FAECF0A3EDF0A3EEF0A3EFF0A3D0E0F0A3D0E0F0A3D0E0F096
:2010A000A3E520F0A3E5F0F0A322853F83853E82E0C0E0A3E0F9A3E0FAA3E0FBA37821E0CC
:2010C000F608A3DFFAE0FCA3E0FDA3E0FEA3E0FFA3E0C0E0A3E0C0E0A3E0F5D0A3E0F52011
:2010E000A3E0A3F5F010AF0885833F85823E800885833F85823ED2AFD082D083D0E0F8D0E0
:20110000E03274048006740280027401C0E0F404120EC4D0E0120D9922740480047402805A
:2011200000CCC0E0EDC0E0E53EC39CCCAD3F50011D10AF068C3E8D3F80068C3E8D3FD2AF16
:20114000120DA6D0E0FDD0E0FC22D083D082E9C0E0E493A3C386F0C5F095F0F908E493A379
:2011600086F0C5F095F0700BE493A3C3994005E9048002A3E475F002A42582F582E5F03560
:2011800083F583D0E0F9E493A3C0E0E493C0E022D083D082ECC0E0EDC0E0E493A3FCE4936D
:2011A000A3FDED4C600D1211DCEC24FFFCED34FFFD80EFE493A3FCE493A3FDED4C600D126E
:2011C000121BEC24FFFCED34FFFD80EFD0E0FDD0E0FCE493A3C0E0E493C0E022C0E0C3E4B8
:2011E0009396087401939618400FE49366700808740193661870007019A3A3C3E4939608BF
:201200007401939618A3A3400DD0E0D0E0D0E00211CCA3A3A3A3A3A3D0E022C0E0C0F0881A
:20122000F0E4936670080874019366187000A8F0A3A3700BD0F0D0E0D0E0D0E00211CCA3C0
:20124000A3D0F0D0E022D083D082ECC0E0EDC0E0EEC0E0EFC0E0E493A3FCE493A3FDE493DA
:20126000A3FEE493A3FFEF4E4D4C60151212C2EC24FFFCED34FFFDEE34FFFEEF34FFFF809B
:20128000E5E493A3FCE493A3FDE493A3FEE493A3FFEF4E4D4C60151212FFEC24FFFCED3471
:2012A000FFFDEE34FFFEEF34FFFF80E5D0E0FFD0E0FED0E0FDD0E0FCE493A3C0E0E493C0E6
:2012C000E022C0E0C0F088F0120BF8A8F04007120BA0A8F0701AA3A3A3A3120BF8A8F0A395
:2012E000A3A3A34013D0F0D0E0D0E0D0E00212ACA3A3A3A3A3A3A3A3A3A3D0F0D0E022C072
:20130000E0C0F088F0120BA0A8F0A3A3A3A3700BD0F0D0E0D0E0D0E00212ACA3A3D0F0D003
:20132000E022FFFF74F5120F5FEAFEEBFFEE2434F8EF3400F988218922EE2435121450F88F
:20134000EE2437121450F523EC8523F0A4FCAAF08523F0EDA42AFDE82CF8E43DF97A257B68
:2013600000120E08EA852182852283F074075AF87401B800028004C333D8FCFBEA131313B1
:20138000541FF8EE28F8EF3400F9E8245DF582E91214535B6003EA801CEE2436121450F57F
:2013A000F0EA84A8F0EE28F8EF3400F9E82438F582E9121453F97F0402100B74F5120F5F6E
:2013C000EAFEEBFFEE2434121450C0E0EE2435F582EF3400F583D0E0F08E828F83A3A3A3DB
:2013E000A3A3E0FAA3E0FB8E828F83A3A3A3A3A3A3A3E0FCA3E0FDECC39AF523ED9BF5245A
:20140000EE247FF521EF3400F522852182F583E06401702BEE2480F582EF3400F5831211A4
:201420001D1214597402120EA9E960137CE27D04EEFAEFFB1223A3852182852283E4F0AC1A
:2014400023AD24EEFAEFFB121324121C7F0213B6F582EF3400F583E022C082C083853E8227
:20146000853F83E0F8A3E0F9C3EA9CEB9D5010C3EC98ED99401BC3EA98EB995014800EC3FA
:20148000EA98EB994007C3EC98ED994004790180027900D083D08222EAC39CFAEB9DFB22CA
:2014A00074ED120F5F9003A8E064086005E06407702C9061C8E060269003D6E0F874FF683D
:2014C000601CE875F003A4C8AAF02AF974D828FE740339FF8E828F83A3A3A3E0700579001D
:2014E000021640EE2468F529EF3400F52A906060E0852982852A83F075234B752405752121
:2015000000752200E5D914F527E5D95403F528601CEE2482F525EF3400F526740365286048
:2015200058E5276013EE2467121450700B793DEEFAEFFB1223C780A6900546E0640160261A
:20154000852582852683E06004780480027800852721E521C398FA95E0FB1222538A218B22
:2015600022EA4522700612260D0214DE852582852683E070048A238B2478008016E5D9C0B3
:20158000E0882BE523252BF582E5243400F583D0E0F008E8C3952740E4852582852683E0C7
:2015A000602874FC2527F5277823121106AC27A928EEFAEFFB1224757402120EA9E9700A44
:2015C000AA21AB2212290702152D7403652860588527257526007825121106AC23AD24AAB5
:2015E00021AB221224397402120EA9852982852A83E0F8748068700575257F80028825E517
:2016000025F523782312110AE528F523782312110AA927AC21AD229003D6E0FA7B0012207C
:20162000F77402120EA980139003A8E06408600BAC23AD24EEFAEFFB12250B122619790170
:201640007F0C02100B74F3120F5F74FC120E93EAFEEBFF8921A2AFE433F522C2AFEE2463F7
:20166000F523EF3400F5248010AA23AB241223F11229079004E9E004F0852382852483E0FB
:20168000F8A3E0F9E849602FE82402FAE93400FBEA2402F525EB3400F52678251211068A42
:2016A000828B83E0FCA3E0F9EEFAEFFB1223E57402120EA9E960B29004E9E060579004EA8A
:2016C000E0F89004E9E0C398500C7402652170449004EBE0603E8E828F83A3A3A3A3E0855E
:2016E0003E82853F831217247402120EDFE81217249004E8E028F07402120EDFAC82AD83A5
:20170000853E82853F83AA82AB8379011220FD9004E9E4F0E522A2E092AF7404120EA97F5F
:201720000602100BF0A3E4F09004E9E0F822FFFF8540878541C622C0E074EF12104BA2AFEF
:20174000E433FEC2AF759B00906182E0A2E05012E591A2E0500C7591FE74016540700312C5
:2017600014A0E0A2E55051E591A2E5504B7591DF9003A8E064076005E0640870237401658C
:2017800040703579019003D6E0FA75F003A4CAA8F028FB74D82AFA74033BFB1216458018F4
:2017A000E0640D70139003CAE004F064287002E4F07A00E0F912261F906182E0A2E640038A
:2017C00002185EE591A2E6400302185E7591BF9003A8E06405700812254D1225598003126E
:2017E00025537540001225BFE99003A9F079001225B31223137A017B009003A7E0F91228C3
:20180000D1907803E06442705590054AE014F0704DC2AF121816007849D0E0F618D0E0F64B
:20182000E59F540770057522FF800375227FC4C0E07848E6F52108E65522F522740B782171
:20184000120E71D0E02521F8906270E0A2E740F8E8C333906272F0906270E0D2E0F09061FF
:2018600081E0A2E35009E5E9A2E3500375E9F7A3E0A2E75009E591A2E7500375917FEEA262
:20188000E092AF7F040210AAC0E0C0D0C082C083906183E0A2E05009E5BFA2E0500375BF57
:2018A000FEE0A2E15009E5BFA2E1500375BFFDE0A2E25009E5BFA2E2500375BFFBE0A2E3F7
:2018C0005009E5BFA2E3500375BFF7E0A2E45009E5BFA2E4500375BFEFE0A2E55009E5BF45
:2018E000A2E5500375BFDFE0A2E65009E5BFA2E6500375BFBFD083D082D0D0D0E032C0E001
:2019000074F212104BE5A7A2E4500FE5A1A2E4500953A7EF75A1EF121952E5A7A2E5500C44
:20192000E5A1A2E5500653A7DF75A1DFE5A7A2E15009E5A1A2E1500375A1FDE5A7A2E2503F
:201940000CE5A1A2E2500653A7FB75A1FB7F010210AA74F8120F5F7540019003A8E06406B2
:2019600070077A007B00122535A2AFE433FED2AF9003AEE0640170187A207B009003A7E06B
:20198000F91229737A207B009003A7E0F91228D7906182E0D2E6F0900547E0602185C641A3
:2019A00080169003ADE064017008E5C654F84405F5C653BEFC1217307401654060E4EEA245
:2019C000E092AF7F0102100B8E428F43858247858346853E82853F83E0CEA3E0CF85478231
:2019E000854683EBC9EAC8EDCBECCA75F010C3E833C8E933C9EA33CAEB33CBC3EA9EF54570
:201A0000EB9FF544B35004AB44AA45EC33CCED33CDD5F0DAAE42AF432274F1120F5F8A2113
:201A20008B228C238D2490BFFE7821120D25740F120EDF7825120D4B90BFFE7825120D25B8
:201A400078217925120BB990BFAA501078217925120CFD7821120BD94014800E7825792126
:201A6000120CFD7825120BD950047901800279007F0802100B74ED120F5F8A218B228C2363
:201A80008D2490BFFE7821120D257413120EDF7825120D4B90BFFE7825120D257825792179
:201AA000120BB9401178217925120CFDAA21AB22AC23AD248022752900752A00752B007581
:201AC0002C0178297925120CFD78297921120CC4AA29AB2AAC2BAD2C7F0C02100B90BFFE15
:201AE0007821120D4B8A828B837821120D387F0402100B74F5120F5F8C828D837821120D7A
:201B00004B8A828B837821120D11121B47C3E098F0A3E099121B39401E90C0027821120D0E
:201B20004B8A828B837821120CEA8E828F83E02420F0A3E0344EF080A4F08E828F83C3E09B
:201B40009420A3E0944E22EA2404F8EB3400F9E8FEE9FF8C828D83A3A3A3A3E0F8A3E0F95C
:201B60008E828F832274F5120F5FE9FE9004FDE0FAA3E0FBEEC333F8E433F9741F28F5824A
:201B800074BF39F583E02AF521A3E03BF522782112110690BFE2120D691219C87402120E68
:201BA000A98A218B228C238D2474107821120C8CAA21AB227F0402100B74F1120F5F8A2531
:201BC0008B268C278D28740F120EDFE0FAA3E0FB7411120EDFE0F521A3E0F5227821121142
:201BE00006EA2401F521EB3400F522E4F523F52478257921120C0C90BFB67821120D4B788E
:201C0000257921120C0CAA25AB26AC27AD281219C87402120EA98B22EA452260047A018004
:201C2000027A00EC2AFCED3400FD7413120EDFE0F8A3E0F9E8FEE9FFECF8EDF97A717B021E
:201C4000120E0888218922E4F523F5248E828F837821120D5AECF8EDF97A717B02120E0865
:201C60008A218B2274057821120E808E828F83A3A3A3A3E521F0A3E522F07F0802100BC0B8
:201C800082C083E9906000F0D083D08222C0E0C0D0E8C0E0E9C0E0A9A8D2AFC2C7E9A2E7E1
:201CA000E433F8E9A2E792AFD0E0F9D0E0F8D0D0D0E032C2AF02000022120B76CCD50712AD
:201CC0000B7643D607120B7633D707120B7638D707120B76A3CB07120B76BACB07120B765C
:201CE000EBCB07120B7626CC07120B7650CC07120B767ACC07120B7691CC07120B76A8CC07
:201D000007120B76BFCC07120B76E8CC07120B76FBCC07120B7611CD07120B7624CD0712D3
:201D20000B76A3E406120B76A7E506120B76DFE506120B7602E606120B760DE606120B7673
:201D400030E606120B763FE706120B7614E806120B768FE806120B7617E906120B7652E99C
:201D600006120B7689E906120B7617EA06120B76F0EA06120B7650EB06120B765BEB061280
:201D80000B76DAEB06120B76DDEB06120B76E0EB06120B766FEC06120B7672EC06120B76B4
:201DA000A2EC06120B76CCEC06120B76BAED06120B766CEE06120B7627AF07120B764FAF0A
:201DC00007120B767DAF07120B76B4AF07120B7612B007120B765DB007120B76A8B0071232
:201DE0000B76E8B007120B762EB107120B765CB107120B7619B207120B7623B207120B763C
:201E000030B207120B7663B207120B762FB307120B763BB307120B7653B307120B765DB3E3
:201E200007120B7603D507120B761BD507120B7633D507120B7645C206120B7621C30612CE
:201E40000B7685C406120B76DCC406120B765DC506120B764DC606120B769AC606120B7686
:201E600020C706120B7652C706120B7666C906120B76A8C906120B76C6C906120B7649CA23
:201E800006120B761DCB06120B76E5CB06120B76E29107120B76B59207120B765E930712E7
:201EA0000B76B19307120B76619407120B76ED9407120B76D99507120B76089607120B76D9
:201EC0001B9707120B76639707120B76389807120B76749807120B76909807120B76FDB79C
:201EE00007120B7623B807120B763FB907120B7649B907120B767EBA07120B7676BB071289
:201F00000B7614A507120B7644A607120B7677A607120B76C1A607120B7688A807120B76E7
:201F2000008006120B766A8006120B76C98106120B76D98106120B76068206120B7662822A
:201F400006120B76698306120B76338406120B76938506120B76DC8506120B7629860612A1
:201F60000B764F8606120B765D8806120B76628806120B76678A06120B76B48A06120B7610
:201F8000278B06120B765A8B06120B76FC8B06120B76A58C06120B76DD8C06120B76E08C20
:201FA00006120B76288D06120B76688D06120B764F3D00120B76673D00120B76AF3D001258
:201FC0000B76C53D00120B760C3E00120B76203F00120B76AD3F00120B764CC005120B76F9
:201FE00087C005120B76CCC005120B768CC105120B7612C205120B7677C205120B76A3C257
:2020000005120B76DCC205120B761AC505120B76FEC605120B76E4C805120B7627CA0512D3
:202020000B7675CC05120B7687CD05120B76D2CE05120B76E2CF05120B76FFCF05120B7673
:202040003AD005120B765CD005120B76BFD005120B7680D505120B7615D605120B7667D646
:2020600005120B7685D605120B76DFD605120B76DED705120B7662D805120B763BAA07126B
:202080000B7645AA07120B7688AA07120B76A3AA07120B7633AB07120B765BAB07120B766B
:2020A00098AB07120B76CFAB07120B76F8AB07120B766DAC07120B7682AC07120B7697AC34
:2020C00007120B76D8AC07120B7612AD07120B763EAD07120B766CAD07120B76B7AD07123A
:2020E0000B7661AE07120B76AAAE07120B76D4AE07120B76FFAE07120B76E9D107120B760D
:2021000019A906120B7667AA06120B7647AB06120B7666AB06120B76E3AB06120B7626AC8C
:2021200006120B767CAD06120B763DAE06120B76C4B006120B7665B106120B765BB20612DF
:202140000B7658B306120B76B2B406120B763DB506120B768ED007120B76F7D007120B7677
:202160004BD107120B7672D107120B76A3D107120B7669FB05120B76D6FB05120B761DFC40
:2021800005120B7635FD05120B7631FE05120B7614FF05120B76798907120B76BB89071272
:2021A0000B768D8A07120B76668B07120B76608C07120B76428D07120B76AB8D07120B76A1
:2021C000618E07120B76D58E07120B76418F07120B766A8F07120B76E48F07120B767D9062
:2021E00007120B76E29007120B76F79007120B763D9107120B76569107120B76BB910712CA
:202200000B76BE9107120B761FC207120B7647C207120B7685C207120B7643C307120B76B5
:20222000AAC307120B76C6C307120B76EEC307120B761EC407120B762DC407120B76AAC4B4
:2022400007120B7656EA05120B76F4EB05120B760FEE05120B764BEE05120B7678EE0512B2
:202260000B765DEF05120B76A4EF05120B76E8EF05120B7615F005120B7660F005120B76DA
:20228000A0F005120B76CEF005120B7620F105120B76B0F105120B764EF405120B7664F6AA
:2022A00005120B76A2F605120B7633F805120B7678F805120B76EFF805120B7639F90512C3
:2022C0000B765AF905120B76FEF905120B76008007120B767F8007120B76418607120B76EF
:2022E000508707120B76B88807120B764F8907120B76D02900120B76192A00120B76462A4F
:2023000000120B76792A00120B76862A00120B76922A00120B76A42A00120B768B2B001239
:202320000B76E92B00120B761E2C00120B76612D00120B76B82D00120B76252E00120B7619
:20234000E32E00120B769C2F00120B76093000120B76BB3000120B76CB3000120B76523120
:2023600000120B76113200120B763E3200120B76B73200120B76143300120B765E330012F8
:202380000B76F43300120B76BF3400120B76743500120B76E93500120B764A3600120B767C
:2023A000B43600120B76ED3600120B768F3700120B769F3800120B76DF3800120B76FC3849
:2023C00000120B761B3900120B76623900120B76873900120B76B43900120B762E3A001208
:2023E0000B766F3A00120B76933B00120B76433C00120B769A3C00120B76043D00120B7670
:202400001D3D00120B76DDEE06120B7630EF06120B763CEF06120B7611F006120B7638F02D
:2024200006120B7673F006120B76DFF006120B761BF106120B7654F106120B766CF10612A7
:202440000B76C1F106120B76DAF106120B7623F206120B7636F206120B7650F206120B7602
:2024600066F206120B7699F306120B76E0F406120B76E2F506120B76DCF606120B76FB3FC4
:2024800000120B76DD9B06120B760D9C06120B76D59F06120B762CA106120B76F5A1061235
:2024A0000B7675A306120B7646A406120B7683A406120B76A6A406120B76E4A406120B76A3
:2024C000EDA406120B7637A506120B7641A506120B76EBA506120B76C4A606120B7618A7F3
:2024E00006120B767AA706120B76CDA706120B76FCA706120B7639A806120B76C9D805120E
:202500000B7630DC05120B7636DC05120B76B8E105120B7631E605120B7607EA05120B7683
:2025200080BB07120B76F6BB07120B760CBC07120B764DBC07120B7687BC07120B7600BDDC
:2025400007120B763BBD07120B76AEBD07120B76ECBD07120B76F5BD07120B7601BE0712E3
:202560000B761DBE07120B7648BE07120B765EBE07120B76A2BE07120B76D2BE07120B76EB
:20258000E5BE07120B76FFBE07120B7628BF07120B766BBF07120B76AABF07120B76E8BFB8
:2025A00007120B764DC007120B7662C007120B766DC007120B767AC007120B7691C0071219
:2025C0000B769FC007120B76AAC007120B76B6C007120B76C9C007120B76D4C007120B761C
:2025E000F1C007120B7601C107120B7617C107120B7633C107120B763EC107120B7653C187
:2026000007120B7667C107120B76C8C107120B76CEC107120B76D4C107120B76DAC107122F
:202620000B76ECC107120B765A8E06120B76E68E06120B76459006120B76669206120B7645
:20264000529306120B76879306120B76A99306120B76589406120B76509606120B76799661
:2026600006120B760B9706120B763D9706120B764A9706120B76A19706120B76C797061258
:202680000B76349A06120B76379B06120B768F9B06120B7627CE06120B7631CE06120B76FE
:2026A00053CE06120B765FCE06120B76F8CF06120B7627D006120B7643D106120B769CD190
:2026C00006120B7610D306120B767DD306120B76B8D306120B76F7D306120B76B0D60612D7
:2026E0000B76CAD606120B7656D706120B7664D706120B76BDD706120B76CBD706120B761E
:202700003ED806120B76A2D806120B76ECD806120B7675D906120B7697D906120B76BDDB12
:2027200006120B76D2DE06120B76EADF06120B769DE006120B767FE106120B764BCD071215
:202740000B7670CD07120B76E2CD07120B76A7F806120B76B0F806120B76B9F806120B7615
:2027600090F906120B7641FB06120B7677FB06120B76B1FB06120B76E7FB06120B7621FC7A
:2027800006120B7655FC06120B7681FC06120B76CAFC06120B7604FD06120B764DFD061245
:2027A0000B76A5FD06120B76DAFD06120B7635FE06120B766FFE06120B76C0FE06120B76C4
:2027C000F6FE06120B7630FF06120B7653FF06120B76D73F00120B76E13F00120B76F13F2D
:2027E00000120B76F2C407120B7617C507120B7692D707120B7640D807120B764CD807128E
:202800000B7658D807120B7683D607120B7693D607120B769CD607120B76E0D607120B761B
:2028200002D307120B7686D307120B76ECD307120B76059907120B76429907120B765E9939
:2028400007120B76319A07120B76199B07120B767A9C07120B76E69C07120B76C69D0712E3
:202860000B764E9E07120B765B9F07120B76D9D707120B76EBD707120B769F9F07120B763F
:20288000A99F07120B76E99F07120B7632A007120B766CA007120B76C2A007120B76E1A0A5
:2028A00007120B76EAA007120B763BA107120B7664A107120B766EA107120B76DFA1071203
:2028C0000B766DA207120B76C2A207120B76F0A207120B766CA307120B76AFA307120B760F
:2028E000ECA307120B76FEA307120B761AA407120B7623A407120B76E8A407120B763BD783
:2029000007120B76F0CE07120B7641CF07120B76CACF07120B7630D007120B7661C707120D
:202920000B768BC707120B7654C807120B762FC907120B7605D407120B76A1C907120B766B
:20294000D7C907120B7610CA07120B7669CB07120B76E4B307120B76F9B307120B76ACB424
:2029600007120B76ECB407120B7605B507120B7638B507120B7685B507120B76B9B507124D
:202980000B76FBB507120B76BEB506120B7667B906120B76C1B906120B76E0B906120B7662
:2029A0003DBA06120B76ABBB06120B7696BC06120B76CBC006120B7695C106120B7614D89E
:2029C00007120B76D6FF05FFFFFFFFFFFFFFFFFFC082C0839061907404F0A37448F0A3E448
:2029E000F09061807440F09061BC7407F09061877469F09061B67416F07900122319790212
:202A000012231F9029CCE493F46006E493F91222F57905122601022DB1C082C083E9540F0B
:202A2000F9906185E0696012E5C654804449F5C6E59E547F644970F8E9F053C680E59E54F1
:202A40007F70FA022DB174F7120EF3E5A8FE53A87E122301C2BA539AFEC289759B00C2C2AF
:202A600012230775A91175B90512230DD2BA439A0174805E42A8023348C082C0839061815C
:202A8000E4F0A3022DAE75E90075910075BF00020B73C082C083906181E4F0A374C0F0A395
:202AA000E4022DB0C082C08374F8120E939003AA123CE17003022B839003AAE054406023EC
:202AC0007908853E82853F83AA82AB8312240F853E82853F83AA82AB831220DF9003AAE036
:202AE00054BFF0E054806010790C7A6B7B0512240F9003AAE0547FF0E0A2E0500F79001254
:202B000023191220E59003AAE054FEF0E05402600F79011223191220E59003AAE054FDF021
:202B2000E05404600F790012231F1220EB9003AAE054FBF0E05408600F790112231F1220FD
:202B4000EB9003AAE054F7F0E05410600F790212231F1220EB9003AAE054EFF0E05420608F
:202B60000F790312231F1220EB9003AAE054DFF0A3E05401600D12232B1220F19003ABE033
:202B800054FEF07408120EA9022DB1C082C083E9600514602A804F90619A7433F0A3745500
:202BA000F09061A0743AF0900545E064017009C2919003AC7467802D9003AC7461802690FA
:202BC000619A743FF0A3745AF09061A0747FF0900545E064017009D2919003AC74718005DE
:202BE0009003AC746AF0022DB1C082C083E9600B14600D14601714600C80209029C88015CD
:202C00009029C98010900545E0640170059029CA80039029CBE493906186F0022DB174EE64
:202C2000120EF374F4120E93853E82853F83AC82AD837583BF7582E67404120DA69029C82A
:202C400093F46003022D48907808E0C394025003022D287404120EDFAC82AD837583BF751F
:202C6000826D7408120DA6FC7EFF7FFF8E257D008C82858227800F74086D606D74096D6032
:202C800068740A6D60638D2175220074027821120E80122D52120D4BA922E523C9F88829EA
:202CA00074187821120C8CE5294521FAE9FBE527C333F8E433F97404120EDFE58228F5826C
:202CC000E58339123238C3E89AE99B4008E8C39AF8E99B8006EAC398F8EB99F9C3E89EE993
:202CE0009F5006E8FEE9FF8D250DEDC39413408774FF6E700374FF6F6024852521740278C1
:202D000021120E80122D52120D4B853E82853F83E5822527F582E5831236D7E521F00CECCC
:202D2000C394045003022C6875210175220078211211067402120EDFAC82AD837A727B0A1B
:202D40001228237402120EA9740C120EA97F0A020FC574482521F58274783522F583782162
:202D600022C082C083906186E0F89029CBE4936870099029CAE493906186F09061AE7468A5
:202D8000F0A3746AF090624574FBF0A304F053F4FD43FE029005457401F09061A0E0643AD0
:202DA0007004790080027901122319022DB1F0A3F0D083D082020B73C082C08375E1F190F8
:202DC00004FAE0604D1460091460511460491470501223379004F0E0F97AF17B0412259516
:202DE00090BFDA120D691225CB90BFA2120D691225A19004FBE0F91225AD79011225F512CB
:202E00002ED424161236D4744FF0A37423F07900809F12233D80BD12234380B81223498088
:202E2000B3791280EB74F4120EF375D90D9004DBE0A2E0E4331313F8122ECA484401F5D9A8
:202E40007800122F3740FB7800882174DC123C377404122F4140F275E1959004DBE0F97A78
:202E6000DC7B0412259B90092574CBF0A37422122F47122F8B122F8212309F9004FAE06435
:202E8000019004EE700B122EDD120D4B90BFBA8009122EDD120D4B90BFCE7821120CD79059
:202EA000BFFE7821120D25122ED4240E1236D47821120D5A122ED424141236D47413F09095
:202EC00003A87402F07F04020FC59004F0E0C4333354C0229004EEE0F8A3E0C822123B6F41
:202EE00078212274F6120EF31230708AD97800122F3740FB78008006122FE8123125E8C320
:202F00009940F5123062122F3740FB78008008123C337405123125E8C39940F375E1959038
:202F2000092574D7F0A37422122F47122F517412F09003A802330C882174F12521F58274A4
:202F4000041232A294062212308874D1F0A3742222122F8B122F821230A39004EEE0F8A300
:202F6000E0C8240E122F7A74FF1239AC9004EEE0F8A3E0C82414122F7A22F582E83400F510
:202F80008322F0A374E9F0A3742222122F8F22122F9322F0A3747BF0A374242274F6120E10
:202FA000F3122FDD122ECA4402F5D97800122F3740FB78008006122FE8123125E8C39940A4
:202FC000F575E195900925122FF3F0A3122FF3122F547414F09003A8740402330E900500C0
:202FE000E0F9740729F5D922882174012521F58274052274E3123000123000F0A3742222C8
:20300000F0A37422F0A374E32274F6120EF312307074064AF5D97800122F3740FB78008097
:2030200006122FE8123125E8C39940F5123062122F3740FB78008008123C337405123125C7
:20304000E8C39940F375E19590092574DDF0A3742212307E122F517415F09003A874030257
:20306000330E900520122FE074044AF5D9780022122FDD9004F0E0C4333354C0FA221230F1
:2030800088747BF0A374242212308C22123099747BF0A3742412309922122F93F0A32212EF
:2030A00030A322F0900933747BF0A3742412308C747BF0A37424122F8FF022C082C08312E4
:2030C0002ED424061236D4E4022DAE74F7120EF39003D6E0F875F003A4C8AAF02AF974D84B
:2030E00028F8740339F9E82405FAE9123B82A3A3A3A3A3A3A3A3A3123C83A3A3A3A3A3A3E6
:20310000A3E024FFF8A3E034FFF98A828B83E8F0A3E9F00233487F06020FC58821744B258F
:2031200021F58274051236AEF5D90822EAFEEBFF9061D0E0F87480C398FAEE2482221231E3
:2031400044940422F582E93400F583E0F5D90AEAC32274F6120EF3EAFEEBFF9061D0E0608E
:20316000030231E675D90E75D90375D9047A008A21EE2521123C3C248B1231EB40F17A00C9
:203180008A21EE2521123C3C248312313E40F175E1957908EE248BFAEF3400FB122403799A
:2031A00004EE2483FAEF3400FB1224037C008C82AA82C3E49AF895E0F9EE28F8EF39F9E8B1
:2031C000248AF582E91236AAC0E0EE2A123C3C24AAF582E91236D7D0E0F00CECC394084029
:2031E000CD1231F48002790002330F12314494082275E195EE246FF582EF122F7D123CFE6B
:20320000EE2471F582EF122F7DE8F0A3E9F0790122C082C08375D90275D90375D90575E148
:2032200095EA246FF582EB123236EA2471F582EB123206022DB13400F583123CFE2274F611
:20324000120EF3EAFEEBFF90054B74061232AD1211067C01790312246F7402120EA975D9EA
:203260000675D903780012329240FB75E1959003A8E064087017EE246FF582EF123236EE26
:203280002471F582EF1236D7E8F0A3E9F0790102330F8821744B2521F58274051232A294EA
:2032A00005223400F583E0F5D908E8C322F075214B75220578212274F6120EF3EAFEEBFF41
:2032C0009061D0E07042790190054B740BF09003A8E06407701975214B752205782112118A
:2032E000067C01090912246F7402120EA97905740129F5D975D9037800800312311BE8C316
:203300009940F81231F18002790080037401F07F02020FC574F7120EF3EAFEEBFF75D903CD
:2033200075D90375D90DEE24DD12333975E19579041225D11231F4800FF582EF1236AEF5ED
:20334000D922A2E092AF79007F01020FC57F03020FC574012523F5D975D90378002274F5A9
:20336000120EF31233DE6004780480027800E8240BF8EAC398405575230990054B7409F066
:2033800079081233D11223FD852182852283E0601E75214B75220578211211067C09790374
:2033A000EEFAEFFB12246F7402120EA975230D123352800312311BE8C3952340F775E195B5
:2033C00079041225D112355179018002790002334DEE24E2FCEF3400FD7A4C7B052212311E
:2033E0002CF8EF1233E7223400F9882189228882F583E02274F3120EF38A218B2212355DF1
:20340000FAE5212482F523EB1234B46004780480027800E82408F8EAC39850030234AD7533
:20342000250690054B740CF09003C5E090054CF07402C0E0F97CC67D037A4D7B051223FDBE
:20344000D0E0F97CC87D031223FD852382852483E0601E75234B75240578231211067C0652
:203460007903AA21AB2212246F7402120EA975250A74012525F5D975D90378008009882326
:20348000744B2523123121E8C3952540F175E19579041225D1E521246FF582E5221232362A
:2034A000E5212471F582E522123206800279007F05020FC53400F524852382F583E02274EF
:2034C000F6120EF3EAFEEBFF12355DFCEE2482F8EF1235E060047A0480027A00EA2404FAE5
:2034E000ECC39A40607A0290054BEAF0EE24F4F582EF123567601B75214B752205782112F0
:2035000011067C027903EEFA12246F7402120EA97A0674012AF5D975D90378008003123152
:203520001BE8C39A40F875E195EE247312354AEE247F12354A12355179041225D1EE240D94
:203540001231F78002790002330FF582EF1236E622EE241DF582EF1236E6A3F0229061D003
:20356000E0F87480C398221236AE90054CF088828983E02274F6120EF312355DFEEA248274
:20358000F8EB1235E060047C0480027C00EC2404FCEEC39C40457C0290054B7407F0EA2486
:2035A000F5F582EB123567601775214B7522057821121106790312246F7402120EA97C066E
:2035C00074012CF5D975D9037800800312311BE8C39C40F875E19579018002790002330FAF
:2035E0003400F988828983E02274F5120EF3E9FEA2AFE433F523C2AF7F00EA246EF8EB3420
:2036000000F980010F88828983E0F521EFC3952150188F21EA2521FCEB3400FDEC246AF5DE
:2036200082ED1236AA6E70DC8017EA2521FAEB3400FBEA246AF582EB1236D7EE12356D04F5
:20364000F0E523A2E092AF02334D74F6120EF3A2AFE433FFC2AFEA246EF8EB123A14E01425
:20366000F07E0080218E21EA2521F8EB123C3E246BF582E91236AAC0E0E8246AF582E91284
:2036800036D7D0E0F00E8C828D83E0F8EEC39840D4EA246DF582EB1236D774FF1236DBEF9B
:2036A000A2E092AF02330FF582EB1236AE223400F583E022C082C083E5A8F8C2AFEA246AE8
:2036C000F582EB1236D7E91236DBE8A2E7A2E792AF022DB1F582E8122F7D22F0EA2469F5A7
:2036E00082EB1236E6223400F583E4F02274F2120EF38C828D83A3A3A3A3E0541FF0EA24F7
:2037000036123A0A8E828F83E4F0F525852582858223EC2523F8ED1233E7C0E0EA2523F8A8
:20372000EB123782D0E0F0752600852182852283E0F523752400E5267823120E61E523A2E4
:20374000E0502AE52533333354F82526C0E08E828F83E0F8EA28F8EB123C3E2438F582E9FE
:203760001236D7D0E0F08E828F83E004F00526E526C3940840B40525E525C39405408D02AC
:2037800031163400F9E8245DF582E9122F7D2274F6120EF39003D4E0640170030238907A2C
:2037A000009003DAE060030238907401F0A3E4F0A3F090043A04F090043FF09003DD1239E0
:2037C000A79003E704F090040DE4F09003F01239A8A3F0A3F0A3F0900457F090044BF090F6
:2037E00004407480F0A3E4F0900446F09004C21238979004CBF090045AF09004AA123897DD
:20380000A3F0A3F09004B6F09004B8F09004B4F09004CE1238978A217442123C3774041221
:2038200036D774FFF00AEAC3940440EA7A008A82A88274E228F58274041236AAC0E0743547
:2038400028F58274041236D7D0E0F00AEAC3940540DC7A008A82A88274BC28F5827403121E
:2038600036AAC0E074BA28F58274041236D7D0E0F00AEAC3940840DC9003D4E004F06401B5
:2038800070089003DCE09003D6F07AD87B0380047A007B0002330F1239ACA31239AC22C008
:2038A00082C083EA24031236A76008E4F09003D5E014F09003D4E014F070069003D674FF1E
:2038C000F08A828B83A3A3E4F09004E7E0700D9003D5E06401700579001225B3022DB1C0C7
:2038E00082C0839003DBE4F09003DAF09003D4F0A3F0A374FFF075E1F1022DB1C082C083C8
:20390000780079009003DBE0600478D8790388828983A3A3A3A3E0F9022DB174F6120EF360
:20392000EAFEEBFFEE2463F521EF3400F5228016AA21AB221223F11229079004E8E004F00A
:203940009004E9E004F0852182852283123CE170DFEEFAEFFB1223AFEEFAEFFB1224A502E1
:20396000330F74F7120EF3EAFEEBFF8E828F83A3A3A3A3E0FA7B0012212DEEFAEFFB12234B
:20398000C112248702334874F6120EF37800882174BC123C37740312354D08E8C39408403F
:2039A000ED9003BC02330CE41239AC22F0A3F0A3F0A3F02274F6120EF3EA240D123A0AECE8
:2039C0002403F8ED3400F988218922EC2407F8ED123A1412323A852182852283E0FAA3E0D1
:2039E000FB120E088E828F83E8F0A3E9123CF5852182852283E0FAA3E0FB120E088B22EA72
:203A000045226003123A2002330FF8EB3400F9E8FEE9FF223400F9E8FCE9FD8C828D8322F5
:203A20008E828F83E02401F0A3E03400F02274F6120EF3EA242E1236A7FCA3E0FDEA246F05
:203A4000123A0A780079FAECFAEDFB120E088E828F83E8F0A3E9F0780079FAECFAEDFB12EE
:203A60000E088B22EA45226003123A2002330F74F0120EF3EAFEEBFF7410120EDF782112A8
:203A80000D4B1225658A258B268C278D2890BFB27825120CD790BFFE7825120D25782512FA
:203AA00011028E828F83123B6B120D69121A197404120EA9E96003023B5B8E828F83E02401
:203AC00002F8A3E0123C3EFAE9FB8A828B837821120CEA90BFFE7821120D4B8A828B837862
:203AE00021120D38EE240BF582EF1236D7C082C0838E828F83A3A3A3A3A3E02401F8A3E056
:203B00003400F9D083D082E0687003A3E069700479018049EE2407F8EF3400F98882898332
:203B2000123A24EE2473123B627014EE2474123B7A7003A3E06D70078A828B83123A24EEBE
:203B4000247F123B627014EE2480123B7A7003A3E06D70078A828B83123A2479007F0802D0
:203B60000FC5F582EF1236AE640122123B6F22E0F8A3E0F5838882A3A322FAEF123B82E0D3
:203B80006C223400FB8A828B83E0FCA3E0FD888289832274F3120EF3E9FEECFFEA2462F509
:203BA00082EB123B656003023C2E9061D0E0F521EA24821236A7F5256004780480027800ED
:203BC0007480C39521FC95E0FDEF28F8E4123C3E2402F8E93400F9EC98ED99A2D265D03371
:203BE0004048740D120EDFE0F523A3E0F524E52560157823121106EFFCEEF912246F7402F9
:203C0000120EA974042FFF74012FF5D98ED97800800C8821E523123C37E524123125E8C306
:203C20009F40EF75E195790080067907800279FF0234AF882174212521F58222F8EF340035
:203C4000F9E82274F7120EF3A2AFE433F521C2AFEA2402F8EB3400F98A828B83E0FEA3E059
:203C6000FFEE4F600E88828983E0FAA3E0F5838A8280048A828B83123C83123C8DF0E52163
:203C8000023342ECF0A3EDF08882898322ECF0A3EDF08C828D83E4F0A32274F7120EF3EA9E
:203CA000FCEBFD7A007B00A2AFE433FEC2AF8C828D83123CE16022E8FAE9FB8A828B831293
:203CC000323A123CE7E4F0A3123CF5E849700A8C828D83A3A3E4F0A3F0EEA2E092AF02332D
:203CE00048123CFEE849228C828D83E8F0A3E9F08A828B8322F08C828D83123CFE22E0F8DB
:203D0000A3E0F922C082C0838003123D32E9F874FF28190470F4ECFAEDFB022DB1C082C0CF
:203D2000838003123D32E9F874FF28190470F4022DB18C828D83E08A828B83F08C828D83F9
:203D4000A3AC82AD838A828B83A3AA82AB8322C082C0839002E3EAF0A3EBF0D083D0820230
:203D60000B737F01020FC5C082C0838A828B83E064B07039A3E070358A828B83A3A3A3A365
:203D8000E0F87412687011EA241DF582EB3400F583E0640170178005741B6870107C017DE1
:203DA000008A828B83A3A3123F1A12216980AC74F7120EF3E99002E2F07A047B0012215128
:203DC000121F1D809D74F4120EF38A218B22EB548060309002E2E0F91228B98A238B24AE0C
:203DE00023AF24EE4F60138E828F83E064A07003121FC5EEFAEFFB1228A7AA21E522648045
:203E0000FB80047A007B007F04020FC574F5120EF374F5120E93EAFEEBFF7404120EDFAC48
:203E200082AD83121D1FE9F523EE2402F521EF3400F522E96003023EC77406120EDFE0A2CF
:203E4000E050299002E5E0F8A3E0F9E84960187404120EDF123F109002E6E0F583888212D1
:203E60000EF1E9F5238060752306805B9002E3E0F8A3E0F9E849601A7404120EDF123F109D
:203E80009002E4E0F5838882120EF1E9F523700580357523067405120EDFE0702A740612F2
:203EA0000EDFE0853E82853F83F07401120EDFE4F0A3F07403120EDFE523F0853E82853F67
:203EC00083123F10121CD18E828F83A3A3A3A3A3A3123F1AEA4B6003122907E523701D74BD
:203EE00006120EDFE0F8741268700C7405120EDFE064017007800F741B68600A7C017D005D
:203F0000123F14122169740B120EA97F03020FC5AC82AD83852182852283E0FAA3E0FB22D6
:203F200074F0120EF389218A258B268C228D237A1E7B001228A18A278B28AE27AF28EE4F67
:203F400060648E828F8374B0F0A3E522F08E828F83A3A3E525F0A3E526F08E828F83A3A365
:203F6000A3A3E523F0EE2405FAEF3400FB7410120EDFE0FCA3E0FDEC4D60157525197526F9
:203F800000782512110612287D7402120EA980097C197D007900122895EEFAEFFBA92112D4
:203FA00028AD7900800279137F08020FC574F7120EF3EAFEEBFFEE4F601A8E828F83E0F946
:203FC00074FF69600F74FE69600A12292B8E828F8374FFF0023D62C082C083E990074180FF
:203FE00008C082C083E9900742F0D083D082020B73C082C083E990074380EE020B73FFFF29
:2040000001C6FFFF0500009442424242FFFFFFFFFFFFFFFFFFFFFFFFFFFFFFFFFFFFFFFF4E
:20402000000102030405060708090A0BFFFFFFFF02442C025D38FFFFFFFFFFFFFFFFFFFF43
:20404000FFFFFFFFFFFFFFFFFFFFFFFFFFFFFFFFFFFFFFFFFFFFFFFFFFFFFF0263D4FFFF44
:20406000FFFFFF025770FFFFFFFFFF0263FDFFFFFFFFFF0263ABFFFFFFFFFFFFFFFFFFFF1C
:20408000FFFFFF025DAEFFFFFFFFFFFFFFFFFFFFFFFFFFFFFFFFFFFFFFFFFF02566CFFFF69
:2040A000FFFFFFFFFFFFFFFFFFFFFF0256E8FFFFFFFFFF025BE70102D087010000B88702F0
:2040C000D487010000FD8710C885030000880202D887030000810202D487010000FC87103E
:2040E000A885030000000002D087010000C78702D487010000008810F88502000000000271
:20410000D887030000E68602D687010000000002D487010000008810E885020000FF870284
:20412000D887030000E68602D687010000FF8700007F64736400900100000082815082EAC1
:20414000810A8417811083008078869F83AB848D86B1825B8300000300000100000000002E
:2041600000000030B366BF66FF0000B4000028002800283075A000A000A000A00000080079
:2041800008E001F00010001000100010001000100050005000500010001000D007000000FF
:2041A0000000000F0001000500307507001000010081FF00000000FFF7671568FD67FF026E
:2041C000020208025000A0000000E80302D087010000C18702D487010000050D02F8870162
:2041E0000000B90302D487010000060D02DC87010000CF0302D487010000070D02DE870180
:204200000000D10302D487010000080D02E087080000D20302D487010000090D02E2870131
:2042200000000A0DFF0100FF2002D087010000C48702D4870100006E0D02E487000000005D
:204240000002D8870300001F048D6E8D6E8D6E8D6E8D6E8D6E8D6E8D6E8D6E8D6E8D6E8D81
:204260006E8D6EB771CF71B171020202020202020202010D000000100102D087010000BE02
:204280008702D487010000AF0D02EC87010000980802D487010000B00D02EA87010000F4E4
:2042A0008702D487010000B10D02E887010000F68702D487010000B20D02E6870100003DA2
:2042C0008502D487010000B30D02CA87010000FA8702D487010000B40D0296860100002602
:2042E0008602D487010000B50D02DA87010000618402D487010000B60D02F08701000051E3
:204300008602D487010000B70D02F287010000B80D01E803053F100AFFFF0008010100035F
:2043200002010600000000000000000000000000000000000000000000000000000000FF75
:20434000FF0110002000E8030100B0423BAAB83F0000003F8C906339AA0CA33A00941E3CFB
:204360008042633DCFFE753E1572313F0000803FF304353F8096184B000080BF2292D43EBC
:20438000DD9B2A3F04000040FFFF7F7FFFFF7FFF010080341872313FE5C754F84405F5C7D4
:2043A00079012200000080FB124398B90003024416E479447815B800028004F709D8FCE4BD
:2043C00079597802B800028004F709D8FCE4900280787E790A8002F0A3D8FCD9FA78439009
:2043E00040B67A01BA00028007E493A3F608DAF97AFD7B0B9040B778E279038015E493A315
:20440000AD82AE838A828B83F0A3AA82AB838D828E83D8E9D9E77582687583DD7404124492
:204420003E7582A3758343740012443E75D00075815F754180754202759F000243A8C09F78
:20444000F59FE473D09F22D083D082C09FE493C0E0740193C0E0740293F59F22E066701098
:2044600008A3E066700A08A3E066700408A3E06622E4936670130874019366700C08740289
:2044800093667005087403936622C3E7960809E7960809E7960809E796A2D265D03322C369
:2044A000E09608A3E09608A3E09608A3E096A2D265D03322C021C3E096F52108A3E0964292
:2044C0002108A3E096422108A3E0964221A2D265D033E5217001D3D02122C3E7960809E742
:2044E000960809E7960809E79622C3E09608A3E09608A3E09608A3E09622C021C3E096F51B
:204500002108A3E096422108A3E096422108A3E09645217001D3D02122C3E4939608740147
:2045200093960874029396087403939622080808E630E711124E4F124545080808C64480CE
:20454000C618181822181818E9799EC608CAC608CBC608CCC6C370207996CACBCC7019798D
:204560008ECBCC70137986CC700EF9802ACA33CACB33CBCC33CC331930E7F2CCCBCA335013
:20458000147004EA30E00DE4CA3ACACB3BCBCC3CCC500209C3E913C6CC182313C6CB18C6CC
:2045A000CA18C6F9221245E520F01430E72B74FFFCFBFA747F8022E4FCFBFA7480801AB486
:2045C0008008BC00F2BB00EF800F50EBF9E4C39AFAE49BFBE49CFCE499C6CC18C6CB18C671
:2045E000CA18C6F922E4C9C608CAC608CBC6D3330308CCC63392F0C3947F402E94184019B3
:20460000C9B90704CACBCC225025C309CA33CACB33CBCC33CC33D9F422F4600DC9CCC31300
:20462000CB13CBCA13CAD9F6CC22E4FCFBFA2214FCFBFA22E62618461846184622E72719E0
:20464000471947194722181818E60846087009E626087005E633F4220822191919E70947D0
:20466000097009E727097005E733F4220922E6084608C3134608336002E633F422E7094776
:2046800009C3134709336002E733F42212466E602512467D6020124634700302463D0808F2
:2046A00008E76670101819E766700A1819E76670041819E76622F42212466E601C12467D6E
:2046C0006017124634700712463D7001D322C0D012463D7006D0D0B322C32233D0D0501439
:2046E00030E0F6C3E7960809E7960809E7960809E796B32220E0D5E6970809E6970809E61E
:20470000970809E697B32212466E601B12467D6016124634700712463D600CB322C0D01298
:20472000463D7005D0D022C32233D0D0501330E0EBC3E7960809E7960809E7960809E796BF
:204740002220E0E4E6970809E6970809E6970809E697220012466E604F12467D6012E75413
:204760008066F6124646701112463D703B090909F4F618F618F618F62212465A701512461E
:204780003408080860EAE6447FF618768018E4F618F622124634601612463D7012E4F608B9
:2047A000F608F608E65480F609090918181822EAC0E0EBC0E0ECC0E0EDC0E0E687F0A4FB9E
:2047C000ACF008E687F0A42CFCE435F0FA1809E687F0A42C4B60027401CA35F0FCE433FB9C
:2047E00009E687F0D2F7A42CCB35F0FC1908E687F0A42BCC35F0FBE433FD0819E687F0D231
:20480000E7A42C4ACB35F0CD3400FC09E687F0D2E7A42DCC35F0FDE433FA0918E687F0D26B
:20482000F7A42CCD35F0CA3400FC08E687F0D2E7D2F7A42ACC35F07A7E20E70B0ACB33CB42
:20484000CD33CDCC33CC33CB3350147004ED30E00ED2F1E4CD3DCDCC3CCC3B5005DA05C229
:20486000F1EB547FC63308E63392F0FBE73309E733C39A502D2B70190C0D4C4D70151806D2
:20488000E608C333700D20F10AA2F013F6E418800B4024E4F630F002768018F618F618F6FA
:2048A0008024D33B14501074FFA2F013F6187680E418F618F6800FA2F013F618E63303F662
:2048C00018ECF618EDF6D0E0FDD0E0FCD0E0FBD0E0FA2212467D604612466E603DE9687074
:2048E00008F618F618F618F622748067F7124907090909748067F72212466E601D12467D13
:204900007005191919801A124646701F12465AC37003E6673319191940071818182208089C
:204920000874FFF618F618F618F62212465A601712463D702192F01246347019501720F05D
:2049400014080808090909E7F61819E7F61819E7F61819E7F62212463460E6E869701F082D
:2049600008E62480F608E436F618547FB47F0CE654806007F6E418F618F622181822E9C633
:20498000CC08C6CD08C6CE08C6CFC0E0E8C0E0EAC0E0EBC0E009E9F809E7FA09E7FBE6F99C
:2049A00018E6F8C3EC98ED99EE9AEBC2E7F5F0EFC2E795F0500E600CEBCFFBEACEFAE9CD2F
:2049C000F9E8CCF8EAA2E7D2E7FAEB33FB13F5F0EEA2E7D2E7FEEF33FFC5F013A2E730E645
:2049E00001B313C5F0C3C0E0C0F07F00C39BFB605E9418600F401D14601AD0E023F9D0E010
:204A0000F8024AD98AF0E9486003D2F0E4AFF0FAF9F8803BEB30E40D89F0EA6003D2F0E408
:204A2000AFF0F9CAF8EB30E30D88F0EF6002D2F0AFF0E4CAC9F8EB54076014FBC3EA13FA09
:204A4000E913F9E813F8EF135002D2E0FFDBEDD0E0C0E030E739C3E49FFFF5F0EC98FC4215
:204A6000F0ED99FD42F0EE9AFE42F0D0E0F9D0E0F8E5F0607AE923F9EE20E742D8028067DC
:204A8000C3EF33FFEC33FCED33FDEE33FE80EAEC28FCED39FDEE3AFED0E023F9D0E0F84064
:204AA00002801BC3EE13FEED13FDEC13FCEF135002D2E0FF08B800067F7F74FF802EEF3393
:204AC00050178CF020F00260100CBC000C0DBD00080EBE000408E860DFE933E813FFEE23A5
:204AE00013FE4F4D4C8008E95480FFE4FEFDFCEE33EF33F47004FCFD7E80D0E0FBD0E0FAA7
:204B0000D0E0F8D0E0CFC618CEC618CDC618CCC6F92212466E70041818182212467D700D96
:204B200074FFF61819F61819F61819F622E7548066F6124634700F12463D70F014F608F656
:204B400008F608F680D112463D700CF608F608768008E6447F80EC12465D700C12464960B6
:204B6000BFE65480F6E480BB124649700519191980A5E869700C763F18768018F618F6E88D
:204B8000F922E6CDC0E018ECC0E0E633CD33CDD313F6E719FCE7191933CC33C3947F400ED6
:204BA000CD9D502408E65480F6E418F6800FF4043D14501408E6447FF6187680E418F61872
:204BC000F6D0E0FCD0E0FD22CCD313CCFD18E4C6CBC0E018E4C6CAC0E00808ED08C633E6AC
:204BE00013F618E433C675F003C3CA97CA09CB97CB199C40047D08802EBD0003024CBB1620
:204C0000B6FF050606081618C3CA33CACB33CB33CA27CA09CB37CB193CC37D08803E187D91
:204C20000820E75CC633C6CA33CACB33CB33DDF1D5F0EB30E77BCA97CA09CB974ACB199C17
:204C4000406F4B7025E620E0218066187D08C3CA97CA09CB97CB199CD3C633C6CA33CACB3E
:204C600033CB3350C9DDE7D5F0E1D3E4C636C608C636C608C636C608C636C61818188031B0
:204C8000C3CA97CA09CB97CB199CB34097C633C6CA33CACB33CB33DD34D5F02EC6A2E0C61D
:204CA00040C8CA27CA09CB37194A70BECB3CB480B90808E63308E633601F181818D0E0FAE6
:204CC000D0E0FBD0E0FCD0E0FD22187D08CA27CA09CB37CB193CD3808013F618E4B67F110D
:204CE000F618B6FF0EF618C60470D20808768080CAF618F618F680C5080808EAC0E0EBC0D5
:204D0000E086F0E7A4FA180986F0E7A42AFA180986F0E7A42AFA180986F0E7A42AFA198647
:204D2000F0E7A4FBE5F02AFA190886F0E7A42BFBE5F03AFA190886F0E7A42BFBE5F03AFA62
:204D400018180986F0E7A4C5F02BFBE43AFA1908E7C5F0C6A426F6E5F03BFBE43AFA188622
:204D6000F0E7A4F6E5F00826F6E43B08F6E43A08F6D0E0FBD0E0FA22E4CFC0E0E4CEC0E074
:204D8000E4CDC0E0E4CCC0E075F020E626F608E633F608E633F608E633F6181818EC33FC43
:204DA000ED33FDEE33FEEF33FFC3EC9709ED9709EE9709EF97191919400FFFEC97FC09ED98
:204DC00097FD09EE97FE191906D5F0BFECF709EDF709EEF709EFF7191919D0E0FCD0E0FDA6
:204DE000D0E0FED0E0FF22124E52181818124D78124E3E19191922124E3E19191908080857
:204E0000E618181820E7E0124D78124E5218181822090909E719191920E7DC080808E61844
:204E2000181820E703024D78124E52181818124D78124E52181818124E3E19191922E4C3F4
:204E400097F709E497F709E497F709E497F722181818E4C396F608E496F608E496F608E4DA
:204E600096F6226017080808C6A2E713C618C613C618C613C618C613C6D5E0E9226016086A
:204E80000808C6C313C618C613C618C613C618C613C6D5E0EA227009080808226016181861
:204EA00018C6C333C608C633C608C633C608C633C6D5E0EA22E627F60809E637F60809E624
:204EC00037F60809E637F622E026F608A3E036F608A3E036F608A3E036F622E026F008A37B
:204EE000E036F008A3E036F008A3E036F022C3E697F60809E697F60809E697F60809E6975C
:204F0000F622C3E096F008A3E096F008A3E096F008A3E096F022E056F608A3E056F608A34D
:204F2000E056F608A3E056F622E056F008A3E056F008A3E056F008A3E056F022E647F60866
:204F400009E647F60809E647F60809E647F622E046F008A3E046F008A3E046F008A3E04632
:204F6000F022E066F008A3E066F008A3E066F008A3E066F022E0F608A3E0F608A3E0F60844
:204F8000A3E0F622E6F008A3E6F008A3E6F008A3E6F022E0FAA3E0FBA3E0FCA3E0FD22EA98
:204FA000F0A3EBF0A3ECF0A3EDF022E0FCA3E0FDA3E0FEA3E0FF22ECF0A3EDF0A3EEF0A361
:204FC000EFF022E0F8A3E0F9A3E0FAA3E0FB22E8F0A3E9F0A3EAF0A3EBF022CAC0E0E6F0AE
:204FE000A308DAFAD0E0FA22CAC0E0E0A3C582CCC582C583CDC583F0A3C582CCC582C5838D
:20500000CDC583DAE6D0E0CA22C3E498F8E499F912504A8026C3E49AFAE49BFBE920E7E992
:2050200012504AE498F8E499F922C3E498F8E499F912504AE498F8E499F9C3E49AFAE49BBB
:20504000FB22EB20E7CFE920E7E0B90010BB0008E88AF084F8AAF022E4FBC8FA22EB70223C
:205060007B10C833C8C933C9335007C39AC3DBF280069A50012ADBEAC833F4C8C933F4C9D6
:20508000FA2275F008E4C833C8C933C933C99AC99B5004C92AC93BD5F0ECFBC833F4C8E48F
:2050A000C9FA22600D08C6A2E713C618C613C6D5E0F322600C08C6C313C618C613C6D5E0AB
:2050C000F422700422600D18C6C333C608C633C6D5E0F41822254110AF08F541400C15426D
:2050E0008008F54140021542D2AF2200C0D0254110AF08F541500C05428008F5415002050B
:2051000042D2AFD0D0222541F58210AF08F541400C15428008F54140021542D2AF8542836B
:20512000222541F582E43542F583222541F8E43542F9222541FAE43542FB222541FCE43554
:2051400042FD22E4732541C582C0E0E54234FFC583C0E0E541C3958224F810AF08858342DB
:205160008582418008858342858241D2AFCEF0A3E520F0A37821E608F0A3DEFAEFF0A3E5FA
:205180008124FAF8E608F0A3E608F0A3E608F0A30808E608F0A3E608F0A315811581D0E007
:2051A000FED0E0F8158115811581E8C0E0EEC0E0222541C582C0E0E54234FFC583C0E0E5DB
:2051C00041C3958224F910AF088583428582418008858342858241D2AFCEF0A3E520F0A3AA
:2051E0007821E608F0A3DEFAEFF0A3E58124FBF8E608F0A3E608F0A30808E608F0A3E6083D
:20520000F0A315811581D0E0FED0E0F815811581E8C0E0EEC0E022854283854182E0A3FE02
:20522000E0A3F5207821E0A3F608DFFAE0A3FFE0A3C0E0E0A3C0E0E0A3C0E0E0A3C0E0E0F5
:20524000A3C0E010AF088582418583428008858241858342D2AFD083D0820244448542839E
:20526000854182E0A3FEE0A3F5207821E0A3F608DFFAE0A3FFE0A3C0E0E0A3C0E0E0A3C0CF
:20528000E0E0A3C0E010AF088582418583428008858241858342D2AFD083D08222C0D0259B
:2052A00041C582C0E0E54234FFC583C0E0E541C3958224F310AF0885834285824180088507
:2052C0008342858241D2AFC8F0A3E9F0A3EAF0A3EBF0A37921E709F0A3D8FAECF0A3EDF023
:2052E000A3EEF0A3EFF0A3D0E0F0A3D0E0F0A3D0E0F0A3E520F0A3E5F0F0A322854283854E
:205300004182E0C0E0A3E0F9A3E0FAA3E0FBA37821E0F608A3DFFAE0FCA3E0FDA3E0FEA3BD
:20532000E0FFA3E0C0E0A3E0C0E0A3E0F5D0A3E0F520A3E0A3F5F010AF0885834285824104
:205340008008858342858241D2AFD082D083D0E0F8D0E03274048006740280027401C0E078
:20536000F404125106D0E0124FDB227404800474028000CCC0E0EDC0E0E541C39CCCAD4293
:2053800050011D10AF068C418D4280068C418D42D2AF124FE8D0E0FDD0E0FC22D083D08232
:2053A000C5F0E493A3C5F0C395F0F5F0E493A3C395F04005E5F0048001E475F002A42582A5
:2053C000F582E5F03583F583E493A3C0E0E493C0E022D083D082E9C0E0E493A3C386F0C518
:2053E000F095F0F908E493A386F0C5F095F0700BE493A3C3994005E9048002A3E475F002DA
:20540000A42582F582E5F03583F583D0E0F9E493A3C0E0E493C0E022D083D082E9C0E0E417
:2054200093A3C386F0C5F095F0F908E493A386F0C5F095F0702408E493A386F0C5F095F092
:20544000701908E493A386F0C5F095F0700E08E493A3C3994007E9048004A3A3A3E475F00B
:2054600002A42582F582E5F03583F583D0E0F9E493A3C0E0E493C0E022D083D082CCC0E0B6
:20548000E493A360061254A31470FAE493A360061254C21470FAD0E0FCE493A3C0E0E49302
:2054A000C0E022C0E0E493A3D39C5010E493A3C39C400AD0E0D0E0D0E0025496A3A3A3D029
:2054C000E022C0E0E493A36C7009D0E0D0E0D0E0025496A3A3D0E022D083D082ECC0E0EDF9
:2054E000C0E0E493A3FCE493A3FDED4C600D125524EC24FFFCED34FFFD80EFE493A3FCE41D
:2055000093A3FDED4C600D125563EC24FFFCED34FFFD80EFD0E0FDD0E0FCE493A3C0E0E45A
:2055200093C0E022C0E0C3E49396087401939618400FE493667008087401936618700070D6
:2055400019A3A3C3E49396087401939618A3A3400DD0E0D0E0D0E0025514A3A3A3A3A3A37E
:20556000D0E022C0E0C0F088F0E4936670080874019366187000A8F0A3A3700BD0F0D0E075
:20558000D0E0D0E0025514A3A3D0F0D0E022D083D082ECC0E0EDC0E0EEC0E0EFC0E0E49316
:2055A000A3FCE493A3FDE493A3FEE493A3FFEF4E4D4C601512560AEC24FFFCED34FFFDEE31
:2055C00034FFFEEF34FFFF80E5E493A3FCE493A3FDE493A3FEE493A3FFEF4E4D4C60151259
:2055E0005647EC24FFFCED34FFFDEE34FFFEEF34FFFF80E5D0E0FFD0E0FED0E0FDD0E0FC8B
:20560000E493A3C0E0E493C0E022C0E0C0F088F0124519A8F04007124471A8F0701AA3A351
:20562000A3A3124519A8F0A3A3A3A34013D0F0D0E0D0E0D0E00255F4A3A3A3A3A3A3A3A30A
:20564000A3A3D0F0D0E022C0E0C0F088F0124471A8F0A3A3A3A3700BD0F0D0E0D0E0D0E074
:205660000255F4A3A3D0F0D0E022FFFFC0E074EF12529DA2AFE433FFD2AFA889E5AB58F50F
:2056800021605BF4F589C2C59009857401F0754300FA900982E0F91275597E008E23752464
:2056A00000740278231250C2125758EA4B702812574CB800028004C313D8FCA2E05018752B
:2056C0002300752401EE78231250C2AA23AB24900280E0F91274BD0EEEC3940440BEEFA2B0
:2056E000E092AF7F040252FCC0E074EF12529DA2AFE433FFD2AFA88AE58D58F521604BF419
:20570000F58AC2EB7E008E23752400740278231250C212575874406A4B702812574CB80031
:20572000028004C313D8FCA2E05018752300752401EE78231250C2AA23AB24900280E0F9E9
:205740001274BD0EEEC3940440BC8092E8131313541F5407F8E52122740F2523F582740BD1
:205760003524F583E0F8A3E0F9E854C0FAE9FB22C0E074EF12529DA2AFE433FFD2AFA88BE9
:20578000E5AC58F521604BF4F58BC2E87E008E23752400740278231250C212575874806A25
:2057A0004B702812574CB800028004C313D8FCA2E05018752300752401EE78231250C2AAF6
:2057C00023AB24900280E0F91274BD0EEEC3940440BC0256DE74F51251B1EAFEEBFFEE24BF
:2057E00034F8EF3400F988218922EE2435125901F8EE2437125901F523EC8523F0A4FCAAC7
:20580000F08523F0EDA42AFDE82CF8E43DF97A257B0012504AEA852182852283F074075A5B
:20582000F87401B800028004C333D8FCFBEA131313541FF8EE28F8EF3400F9E8245DF58260
:20584000E91259045B6003EA801CEE2436125901F5F0EA84A8F0EE28F8EF3400F9E824389F
:20586000F582E9125904F97F0402525D74F51251B1EAFEEBFFEE2434125901C0E0EE243544
:20588000F582EF3400F583D0E0F08E828F83A3A3A3A3A3E0FAA3E0FB8E828F83A3A3A3A3FF
:2058A000A3A3A3E0FCA3E0FDECC39AF523ED9BF524EE247FF521EF3400F522852182F58320
:2058C000E06401702BEE2480F582EF3400F58312536F12590A74021250EBE960137CE27D01
:2058E00005EEFAEFFB126DB5852182852283E4F0AC23AD24EEFAEFFB1257D512639D02585B
:2059000067F582EF3400F583E022C082C083854182854283E0F8A3E0F9C3EA9CEB9D501070
:20592000C3EC98ED99401BC3EA98EB995014800EC3EA98EB994007C3EC98ED9940047901E9
:2059400080027900D083D08222EAC39CFAEB9DFB2274ED1251B19004A8E064086005E064F7
:2059600007702C9061C8E060269004D6E0F874FF68601CE875F003A4C8AAF02AF974D828DF
:20598000FE740439FF8E828F83A3A3A3E070057900025AF1EE2468F529EF3400F52A906069
:2059A00060E0852982852A83F0752362752406752100752200E5D914F527E5D95403F5286F
:2059C000601CEE2482F525EF3400F526740365286058E5276013EE2467125901700B793D0E
:2059E000EEFAEFFB126DD980A690065DE064016026852582852683E0600478048002780085
:205A0000852721E521C398FA95E0FB126C238A218B22EA4522700612708502598F85258211
:205A2000852683E070048A238B2478008016E5D9C0E0882BE523252BF582E5243400F583E5
:205A4000D0E0F008E8C3952740E4852582852683E0602874FC2527F5277823125358AC274E
:205A6000A928EEFAEFFB126E8774021250EBE9700AAA21AB221274F30259DE7403652860A8
:205A8000588527257526007825125358AC23AD24AA21AB22126E4B74021250EB852982856D
:205AA0002A83E0F8748068700575257F80028825E525F523782312535CE528F523782312F8
:205AC000535CA927AC21AD229004D6E0FA7B00126ABB74021250EB80139004A8E064086077
:205AE0000BAC23AD24EEFAEFFB126F4112709179017F0C02525D74F31251B174FC1250D57C
:205B0000EAFEEBFF8921A2AFE433F522C2AFEE2463F523EF3400F5248010AA23AB24126EA4
:205B2000031274F39005E9E004F0852382852483E0F8A3E0F9E849602FE82402FAE9340008
:205B4000FBEA2402F525EB3400F52678251253588A828B83E0FCA3E0F9EEFAEFFB126DF7D2
:205B600074021250EBE960B29005E9E060579005EAE0F89005E9E0C398500C74026521707A
:205B8000449005EBE0603E8E828F83A3A3A3A3E0854182854283125BD57402125121E8126D
:205BA0005BD59005E8E028F07402125121AC82AD83854182854283AA82AB837901126AC145
:205BC0009005E9E4F0E522A2E092AF74041250EB7F0602525DF0A3E4F09005E9E0F822FFD0
:205BE0008551878552C622C0E074EF12529DA2AFE433FEC2AF759B00906182E0A2E0501267
:205C0000E591A2E0500C7591FE740165517003125951E0A2E55051E591A2E5504B7591DF4D
:205C20009004A8E064076005E06408702374016551703579019004D6E0FA75F003A4CAA88D
:205C4000F028FB74D82AFA74043BFB125AF68018E0640D70139004CAE004F064287002E431
:205C6000F07A00E0F9127097906182E0A2E64003025D0EE591A2E64003025D0E7591BF903A
:205C800004A8E064057008126F83126F8F8003126F8975510012700DE99004A9F079001200
:205CA0006FEF126D0D7A017B009004A7E0F91274BD907803E064427055900661E014F0700C
:205CC0004DC2AF125CC600785AD0E0F618D0E0F6E59F540770057522FF800375227FC4C095
:205CE000E07859E6F52108E65522F522740B78211250B3D0E02521F8906270E0A2E740F85D
:205D0000E8C333906272F0906270E0D2E0F0906181E0A2E35009E5E9A2E3500375E9F7A39F
:205D2000E0A2E75009E591A2E7500375917FEEA2E092AF7F040252FCC0E0C0D0C082C08391
:205D4000906183E0A2E05009E5BFA2E0500375BFFEE0A2E15009E5BFA2E1500375BFFDE022
:205D6000A2E25009E5BFA2E2500375BFFBE0A2E35009E5BFA2E3500375BFF7E0A2E4500978
:205D8000E5BFA2E4500375BFEFE0A2E55009E5BFA2E5500375BFDFE0A2E65009E5BFA2E625
:205DA000500375BFBFD083D082D0D0D0E032C0E074F212529DE5A7A2E4500FE5A1A2E450A2
:205DC0000953A7EF75A1EF125E02E5A7A2E5500CE5A1A2E5500653A7DF75A1DFE5A7A2E1AB
:205DE0005009E5A1A2E1500375A1FDE5A7A2E2500CE5A1A2E2500653A7FB75A1FB7F010287
:205E000052FC74F81251B17551019004A8E0640670077A007B00126F6BA2AFE433FED2AF28
:205E20009004AEE0640170187A207B009004A7E0F91275897A207B009004A7E0F91274C3A8
:205E4000906182E0D2E6F090065EE0602185C65280169004ADE064017008E5C654F8440581
:205E6000F5C653BEFC125BE07401655160E4EEA2E092AF7F0102525D8E538F548582588514
:205E80008357854182854283E0CEA3E0CF855882855783EBC9EAC8EDCBECCA75F010C3E8E4
:205EA00033C8E933C9EA33CAEB33CBC3EA9EF556EB9FF555B35004AB55AA56EC33CCED33B6
:205EC000CDD5F0DAAE53AF542274E91251B174FA1250D5EAFEEBFF8C218D229004A8E024AC
:205EE000F7C394055006752901025FF4126EE18A238B24EA45247003025FF1126FA18A255F
:205F00008B26126FA1EA65257003EB652660ECEEFCEFFD854182854283AA82AB83126FA71B
:205F2000852382852483A3A37825124F759087207825124F16854182854283782D124F75FA
:205F4000908720782D124F167825792D1244DA501F7825792D124EEE90875C78251244FA1B
:205F6000404785252985262A85272B85282C804590875C852D29852E2A852F2B85302C781A
:205F8000297925124EEE78291244FA501C752900752A00752B00752C017829792D124EEE7B
:205FA00078297925124EB5800C752901752A00752B00752C0074097829124E969086F878E8
:205FC00025124F7578297925124D789004A8E06408600AE064066005E064057020908760BF
:205FE00078291244FA50169087647829124EC8800C752900752A00752B00752C00852182D4
:206000008522837829124F8474061250EB7F1002525D74F71251B1126FB990065CE06401D9
:206020007010906245E4F0A3F053F4F343FE0C5390F3126F59E5C654804449F5C6E59E546D
:206040007F644970F8906185740FF090065AE0F47002A3E0602C75210175220090065AE080
:2060600078211250C2E521F4FAA3E0600814600A14600C800DEA52808008EA52908003EA7C
:2060800052A079007F0202525D74F71251B1E9FEEAFF74016E700C7A807B009004A7E0F92C
:2060A0001274BD907620E493F46008E493F9126CEF800953C680E59E547F70FA126F5F9075
:2060C000065CE064017003126D2590065AE0F47002A3E0602A75210175220090065AE07849
:2060E000211250C2AA21A3E0600814600A14600C800DEA42808008EA42908003EA42A012C9
:206100006EE18A218B22A821A922E8496017E5E170FCE82414F582E93400F583E0F874FFF3
:2061200068600288E174016F700A7A019004A7E0F912755902608474F11251B18A218B22A8
:206140008C238D249087207821124F16740F1251217825124F759087207825124F1678213A
:2061600079251244DA90875C501078217925124EEE78211244FA4014800E78257921124E97
:20618000EE78251244FA50047901800279007F0802525D74ED1251B18A218B228C238D24F6
:2061A0009087207821124F1674131251217825124F759087207825124F1678257921124442
:2061C000DA401178217925124EEEAA21AB22AC23AD248022752900752A00752B00752C01B6
:2061E00078297925124EEE78297921124EB5AA29AB2AAC2BAD2C7F0C02525D90872078215E
:20620000124F758A828B837821124F297F0402525D74F51251B18C828D837821124F758AA3
:20622000828B837821124F02126265C3E098F0A3E099126257401E90879C7821124F758ADD
:20624000828B837821124EDB8E828F83E02420F0A3E0344EF080A4F08E828F83C3E0942022
:20626000A3E0944E22EA2404F8EB3400F9E8FEE9FF8C828D83A3A3A3A3E0F8A3E0F98E8299
:206280008F832274F51251B1E9FE9005FDE0FAA3E0FBEEC333F8E433F9747828F58274850C
:2062A00039F583E02AF521A3E03BF5227821125358908794124F93125E7874021250EB8A0E
:2062C000218B228C238D2474107821124E7DAA21AB227F0402525D74F11251B18A258B26F1
:2062E0008C278D28740F125121E0FAA3E0FB7411125121E0F521A3E0F5227821125358EAFE
:206300002401F521EB3400F522E4F523F52478257921124CF89087707821124F757825795E
:2063200021124CF8AA25AB26AC27AD28125E7874021250EB8B22EA452260047A0180027A1A
:2063400000EC2AFCED3400FD7413125121E0F8A3E0F9E8FEE9FFECF8EDF97A717B0212504C
:206360004A88218922E4F523F5248E828F837821124F84ECF8EDF97A717B0212504A8A2141
:206380008B22740578211250C28E828F83A3A3A3A3E521F0A3E522F07F0802525DC082C0A2
:2063A00083E9906000F0D083D08222C0E074F212529DA2AFE433FED2AFC2C0E5D1A2E450CE
:2063C0000653D1EF1273D3754300EEA2E092AF7F010252FCC0E0C0D0E8C0E0E9C0E0A9A881
:2063E000D2AFC2C7754300E9A2E7E433F8E9A2E792AFD0E0F9D0E0F8D0D0D0E032C0E0C074
:20640000D0E8C0E0E9C0E0EAC0E0C082C083A2AFE433FAD2AF900B09E0F8A3E06870085377
:206420009AFBA374018022C2E9900B09E0F8740128F0748928F582E4340AF583E0F5C190FD
:206440000B09E0C394804002E4F0EAA2E092AFD083D082D0E0FAD0E0F9D0E0F8D0D0D0E0BE
:2064600032C2AF02000022124447EB95041244478396041244475C9804124447B1980412E9
:2064800044470799041244471C9904124447A99904124447319A041244476DAB03124447D3
:2064A00047AC0312444756AE03124447F7AE0312444778AF0312444721B103124447EFB187
:2064C0000312444709B2031244479CB20312444735B3031244470EB40312444744B40312DC
:2064E00044475EB70312444719B80312444775B803124447FDB803124447008001124447AB
:206500001C8001124447F48101124447E182011244473D8301124447898301124447B983E9
:2065200001124447058501124447818501124447F685011244478286011244479787011201
:2065400044471A88011244473F8A011244473192011244477F9201124447AF92011244471A
:20656000069301124447339301124447CFB90112444723BA01124447B2BA0112444751BEC6
:2065800001124447DEC3011244470EC40112444796CB0112444786CC01124447CFCC011211
:2065A0004447E1CD0112444725CF0112444774CF0112444721D101124447B0D004124447E0
:2065C000C7D004124447F8D00412444733D1041244475DD10412444787D1041244479ED13E
:2065E00004124447B5D104124447CCD104124447F5D10412444708D2041244471ED20412AD
:20660000444731D20412444758D20412444730C40312444734C5031244476CC50312444782
:206620008FC5031244479AC503124447BDC503124447CCC603124447A1C7031244471CC827
:2066400003124447A4C803124447DFC80312444716C903124447A4C9031244477DCA03125F
:206660004447DDCA03124447E8CA0312444767CB031244476ACB031244476DCB0312444777
:20668000FCCB03124447FFCB031244472FCC0312444759CC0312444747CD03124447F9CD4F
:2066A000031244476ACE0312444762CF0312444796CF0312444718D00312444760D00312BF
:2066C0004447C4D00312444751D1031244470BD2031244471AD503124447A5D60312444712
:2066E000C8D603124447B39F04124447DB9F0412444709A00412444740A0041244479EA045
:2067000004124447E9A00412444734A10412444774A104124447BAA104124447E8A10412E7
:206720004447A5A204124447AFA204124447BCA204124447EFA204124447BBA304124447C4
:20674000C7A304124447DFA304124447E9A30412444772DB0412444780DB0412444798DB81
:2067600004124447B0DB04124447ADF00212444759F102124447D4F102124447F5F20212C8
:20678000444731F302124447DAF302124447C1F40212444725F6021244477CF60212444720
:2067A000FDF602124447EDF7021244473AF802124447C0F802124447F2F80212444706FB12
:2067C0000212444748FB0212444766FB02124447E9FB02124447BDFC0212444785FD0212C7
:2067E00044474FF10312444722F203124447CBF2031244471EF303124447CEF3031244470B
:206800005AF40312444746F50312444775F50312444788F603124447D0F603124447A5F785
:2068200003124447E1F703124447FDF703124447E4DC041244470DB90412444733B90412E2
:2068400044474FBA0412444759BA041244478EBB0412444786BC0412444790BC0412444795
:20686000C49004124447F4910412444727920412444771920412444738940412444742D080
:2068800002124447ACD0021244470BD20212444795D202124447A5D202124447D2D20212EE
:2068A000444729D302124447D2D302124447D9D402124447A3D50212444703D70212444792
:2068C00046D702124447EBD70212444738D8021244475ED8021244476CDA0212444771DAE7
:2068E0000212444776DC02124447C3DC0212444736DD0212444769DD021244470BDE021236
:206900004447B4DE02124447ECDE02124447EFDE0212444737DF0212444777DF021244473C
