:020000040000FA
:2000000002075EC2AFF5088114FFFFC2AFF5088126FFFFC2AFF5088138FFFFC2AFF5088151
:200020004AFFFFC2AFF508815CFFFFC2AFF508816EFFFFC2AFF5088180FFFFC2AFF5088178
:2000400092FFFFC2AFF50881A4FFFFC2AFF50881B6FFFFC2AFF50881C8FFFFC2AFF5088138
:20006000DAFFFFC2AFF50881ECFFFFC2AFF50881FEFFFFC2AFF508A110FFFFC2AFF508A1B8
:2000800022FFFFC2AFF508A134FFFFC2AFF508A146FFFFFF758701002274FC120724750A62
:2000A00004750B00780A12074D74021207937A007B00790812055C7402120709851D828588
:2000C0001E83E0F47003A3E0F470030201FE851D82851E83E0F8A3E0F9E84970030201FE0A
:2000E0007402120789E0687003A3E0697010750901024030C2AF75C9AB75C95B80FE53BE4E
:20010000FBE59DA2E650FAE5C654804449F5C6E59E547F644970F853C67FE59EA2E740FA80
:2001200053C680E59E547F70FA43BE049062707408F0750A00F50B780A12074D7C807D01B2
:200140007A007B00790812055C7402120709900186E0F50AA3E0F50B7409780A12076DE53B
:200160000A2408FF53B4F375BC0075BC007CFC7D077A047B0079081203837E09EFC3940A09
:20018000401C800774086E70027E567C007D087A007B00EEF91203830EEEC39F40E6A8BDEE
:2001A000851D82851E83E8F9E5BCF8E0687003A3E069704A851D82851E83E0F8A3E0F97408
:2001C00002120789E8F0A3E9F0851D82851E8374FFF0A3F07409F5D575D480750A01780AD5
:2001E00012074D74021207937A007B101205E27402120709C2AF75C9AB75C95B80FE750AF1
:2002000004780A12074D74021207937A007B00790112055C7402120709851D82851E83E02C
:20022000F47003A3E0F47003020373851D82851E83E0F8A3E0F9E8497003020373740212B3
:200240000789E0F8A3E0F9851D82851E83E0687003A3E0697010750900020830C2AF75C9E2
:20026000AB75C95B80FE74FF68700374FF69600302037353BEFBE59DA2E650FAE5C65480D8
:200280004449F5C6E59E547F644970F853C67FE59EA2E740FA53C680E59E547F70FA43BE73
:2002A000049062707408F0750A00F50B780A12074D7C807D017A007B00790112055C740233
:2002C000120709900186E0F50AA3E0F50B7409780A12076DE50A244FFF53B4F375BC0075FD
:2002E000BC007CFC7D077A047B0079011203837E02EFC39403401C800774086E70027E565F
:200300007C007D087A007B00EEF91203830EEEC39F40E6A8BD851D82851E83E8F9E5BCF8BB
:20032000E0687003A3E069704A851D82851E83E0F8A3E0F97402120789E8F0A3E9F0851DB0
:2003400082851E8374FFF0A3F07409F5D575D480750A01780A12074D74021207937A007B70
:20036000021205E27402120709C2AF75C9AB75C95B80FE43BE03120094C2AF75C9AB75C937
:200380005B80FE74F7120648E9FEAFC7740F5EF50A750B00740B780A12073AEA2400F8EBB7
:2003A000350BF9E82400E93480F9A2AFE433F50AC2AFEEC4540FFAE5C754F84AF5C7E99004
:2003C0000980F0E8A3F0A37470F0A374BDF0EC900985F0900984E054E0F0EDFCE04CF0903E
:2003E00009867420F0A37442F07409F5D575D48075D601000000000000000000000075D7F9
:2004000001E5D7A2E040FA8FC7E50AA2E092AF7F020206AEE5096007E508D2AF024033E507
:2004200008D2AF020833E5096007E508D2AF02403BE508D2AF02083BE5096007E508D2AF40
:20044000024043E508D2AF020843E5096007E508D2AF02404BE508D2AF02084BE5096007F4
:20046000E508D2AF024053E508D2AF020853E5096007E508D2AF02405BE508D2AF02085B7B
:20048000E5096007E508D2AF024063E508D2AF020863E5096007E508D2AF02406BE508D2EA
:2004A000AF02086BE5096007E508D2AF024073E508D2AF020873E5096007E508D2AF0240B0
:2004C0007BE508D2AF02087BE5096007E508D2AF024083E508D2AF020883E5096007E508E9
:2004E000D2AF02408BE508D2AF02088BE5096007E508D2AF024093E508D2AF020893E5091A
:200500006007E508D2AF02409BE508D2AF02089BE5096007E508D2AF0240A3E508D2AF02FE
:2005200008A3E5096007E508D2AF0240ABE508D2AF0208ABE5096007E508D2AF0240B3E5A0
:2005400008D2AF0208B3E5096007E508D2AF0240BBE508D2AF0208BB0002055874F6120681
:2005600048890C740F550CF50A750B00740B780A12073AEA2400F8EB3480F9E82400E9351F
:200580000BF985C70BA2AFE433F50AC2AFE50CC4540FFAE5C754F84AF5C7740A120789E018
:2005A000FEA3E0FFEE4F602CEEFAEFFB88828983E08C828D83F088828983A3A882A9838C81
:2005C000828D83A3AC82AD83EA24FF1AEB34FFFBEA4B70D8850BC7E50AA2E092AF7F03023E
:2005E00006AE74F7120648ED900980F0ECA3F0A37462F0A37473F0A3E0541FF074091207A8
:2006000089E0F50AA3E0F50BE50A333354FC900985F07406780A12076DE50A900984F0902E
:2006200009867412F0A37442F053D1FE75D601EA906271F0EBA3F0906270E0D2E1F0E0A2DC
:20064000E740FB7F020206AE251DC582C0E0E51E34FFC583C0E0E51DC3958224F910AF083A
:2006600085831E85821D800885831E85821DD2AFCEF0A3E520F0A3780AE608F0A3DEFAEF1A
:20068000F0A3E58124FBF8E608F0A3E608F0A30808E608F0A3E608F0A315811581D0E0FE5C
:2006A000D0E0F815811581E8C0E0EEC0E022851E83851D82E0A3FEE0A3F520780AE0A3F6D0
:2006C00008DFFAE0A3FFE0A3C0E0E0A3C0E0E0A3C0E0E0A3C0E010AF0885821D85831E809A
:2006E0000885821D85831ED2AFD083D08222251DF58210AF08F51D400C151E8008F51D4075
:2007000002151ED2AF851E832200C0D0251D10AF08F51D500C051E8008F51D5002051ED2D0
:20072000AFD0D022251D10AF08F51D400C151E8008F51D4002151ED2AF22700422600D18E1
:20074000C6C333C608C633C6D5E0F4182274028000C0E0F4041206EED0E012077C2275D02D
:200760000075813F751D80751E0102079B600C08C6C313C618C613C6D5E0F422CAC0E0E652
:20078000F0A308DAFAD0E0FA22251DF582E4351EF58322251DFCE4351EFD2212009912073C
:2007A000A100000080FBFFFFFFFFFFFFFFFFFFFFFFFFFFFFFFFFFFFFFFFFFFFFFFFFFFFF37
:2007C000FFFFFFFFFFFFFFFFFFFFFFFFFFFFFFFFFFFFFFFFFFFFFFFFFFFFFFFFFFFFFFFF39
:2007E000FFFFFFFFFFFFFFFFFFFFFFFFFFFFFFFFFFFFFFFFFFFFFFFFFFFFFFFFFFFFFFFF19
:20080000DA8DFFFF0000005C41414141FFFFFFFFFFFFFFFFFFFFFFFFFFFFFFFFFFFFFFFF27
:20082000000102030405060708090A0BFFFFFFFF020B5B021888FFFFFFFFFFFFFFFFFFFF7A
:20084000FFFFFFFFFFFFFFFFFFFFFFFFFFFFFFFFFFFFFFFFFFFFFFFFFFFFFF021C8DFFFF0A
:20086000FFFFFFFFFFFFFFFFFFFFFFFFFFFFFFFFFFFFFFFFFFFFFFFFFFFFFFFFFFFFFFFF98
:20088000FFFFFF0218FEFFFFFFFFFFFFFFFFFFFFFFFFFFFFFFFFFFFFFFFFFFFFFFFFFFFF5D
:2008A000FFFFFFFFFFFFFFFFFFFFFFFFFFFFFFFFFFFFFF021737FF0000B4000028002800F8
:2008C000283075A000A000A000A00000080008E001F000100010001000100010001000503A
:2008E000005000500010001000D0070000000000000F00010005003075070010000100810E
:20090000FF00000000FFA51EC31EAB1EFF02020208025000A0000000E8030224C00100009B
:2009200013C00218C00100009B08021EC0010000B9020218C00100009C080220C001000068
:20094000CF020218C00100009D080222C0010000D1020218C00100009E080238C00800000B
:20096000D2020218C00100009F080226C0010000A008FF0100FF200224C00100000AC002BE
:2009800018C001000004090228C00000000000021CC00300001F037B247B247B247B247B8D
:2009A000247B247B247B247B247B247B247B247B241B273327152702020202020202020231
:2009C000010D00000010010224C00100000DC00218C001000045090242C0010000440702C9
:2009E00018C001000046090240C00100002CC00218C00100004709023EC00100002AC002C8
:200A000018C00100004809023CC0010000C5BE0218C00100004909023AC001000046C002F8
:200A200018C00100004A090248C00100000EBF0218C00100004B090236C00100008DBE023D
:200A400018C00100004C090234C00100003EBF0218C00100004D090232C00100004E091CDB
:200A60000224C001000010C00218C0010000ED09102EBE0200007507021CC0030000770715
:200A8000021AC00100004CBF0218C0010000ED09103EBE0200007607021CC00300007D07AD
:200AA000021AC001000059BFFFFFFFFF00080101000302010600000000000000000000002F
:200AC0000000000000000000000000000000000000FFFF0110002000E803E5C754F84405BB
:200AE000F5C779012200000080FB120ADAB90003020B45E479407808B800028004F709D8EC
:200B0000FCE479487802B800028004F709D8FCE490028078C579068002F0A3D8FCD9FA7AC0
:200B2000447B089008B6782579038015E493A3AD82AE838A828B83F0A3AA82AB838D828ED4
:200B400083D8E9D9E77582E37583D67407120B6D7582E575830A7400120B6D75D0007581CD
:200B60007F753E80753F02759F00020AEAC09FF59FE473D09F22D083D082C09FE493C0E00D
:200B8000740193C0E0740293F59F22E066701008A3E066700A08A3E066700408A3E0662245
:200BA000E4936670130874019366700C08740293667005087403936622C3E7960809E7968F
:200BC0000809E7960809E79622C3E09608A3E09608A3E09608A3E09622C021C3E096F521E9
:200BE00008A3E096422108A3E096422108A3E09645217001D3D02122C3E49396087401932F
:200C0000960874029396087403939622080808EAC0E0EBC0E086F0E7A4FA180986F0E7A483
:200C20002AFA180986F0E7A42AFA180986F0E7A42AFA1986F0E7A4FBE5F02AFA190886F05F
:200C4000E7A42BFBE5F03AFA190886F0E7A42BFBE5F03AFA18180986F0E7A4C5F02BFBE490
:200C60003AFA1908E7C5F0C6A426F6E5F03BFBE43AFA1886F0E7A4F6E5F00826F6E43B08AB
:200C8000F6E43A08F6D0E0FBD0E0FA226016080808C6C313C618C613C618C613C618C6137C
:200CA000C6D5E0EA227009080808226016181818C6C333C608C633C608C633C608C633C665
:200CC000D5E0EA22E627F60809E637F60809E637F60809E637F622E026F608A3E036F60807
:200CE000A3E036F608A3E036F622E026F008A3E036F008A3E036F008A3E036F022C3E69701
:200D0000F60809E697F60809E697F60809E697F622C3E096F008A3E096F008A3E096F008DC
:200D2000A3E096F022E056F608A3E056F608A3E056F608A3E056F622E056F008A3E056F0BE
:200D400008A3E056F008A3E056F022E0F608A3E0F608A3E0F608A3E0F622E6F008A3E6F0FD
:200D600008A3E6F008A3E6F022E0FAA3E0FBA3E0FCA3E0FD22EAF0A3EBF0A3ECF0A3EDF07F
:200D800022E0F8A3E0F9A3E0FAA3E0FB22E8F0A3E9F0A3EAF0A3EBF022CAC0E0E6F0A30864
:200DA000DAFAD0E0FA22CAC0E0E0A3C582CCC582C583CDC583F0A3C582CCC582C583CDC528
:200DC00083DAE6D0E0CA22C3E498F8E499F9120E088026C3E49AFAE49BFBE920E7E9120E0B
:200DE00008E498F8E499F922C3E498F8E499F9120E08E498F8E499F9C3E49AFAE49BFB2249
:200E0000EB20E7CFE920E7E0B90010BB0008E88AF084F8AAF022E4FBC8FA22EB70227B1050
:200E2000C833C8C933C9335007C39AC3DBF280069A50012ADBEAC833F4C8C933F4C9FA22C7
:200E400075F008E4C833C8C933C933C99AC99B5004C92AC93BD5F0ECFBC833F4C8E4C9FA6A
:200E600022600D08C6A2E713C618C613C6D5E0F322600C08C6C313C618C613C6D5E0F422DA
:200E8000700422600D18C6C333C608C633C6D5E0F41822253E10AF08F53E400C153F800886
:200EA000F53E4002153FD2AF2200C0D0253E10AF08F53E500C053F8008F53E5002053FD216
:200EC000AFD0D022253EF58210AF08F53E400C153F8008F53E4002153FD2AF853F832225CD
:200EE0003EF582E4353FF58322253EFCE4353FFD22E473253EC582C0E0E53F34FFC583C075
:200F0000E0E53EC3958224F810AF0885833F85823E800885833F85823ED2AFCEF0A3E5208A
:200F2000F0A37821E608F0A3DEFAEFF0A3E58124FAF8E608F0A3E608F0A3E608F0A308089B
:200F4000E608F0A3E608F0A315811581D0E0FED0E0F8158115811581E8C0E0EEC0E02225EE
:200F60003EC582C0E0E53F34FFC583C0E0E53EC3958224F910AF0885833F85823E80088593
:200F8000833F85823ED2AFCEF0A3E520F0A37821E608F0A3DEFAEFF0A3E58124FBF8E608F1
:200FA000F0A3E608F0A30808E608F0A3E608F0A315811581D0E0FED0E0F815811581E8C0B5
:200FC000E0EEC0E022853F83853E82E0A3FEE0A3F5207821E0A3F608DFFAE0A3FFE0A3C024
:200FE000E0E0A3C0E0E0A3C0E0E0A3C0E0E0A3C0E010AF0885823E85833F800885823E85E0
:20100000833FD2AFD083D082020B73853F83853E82E0A3FEE0A3F5207821E0A3F608DFFAD0
:20102000E0A3FFE0A3C0E0E0A3C0E0E0A3C0E0E0A3C0E010AF0885823E85833F80088582C0
:201040003E85833FD2AFD083D08222C0D0253EC582C0E0E53F34FFC583C0E0E53EC39582AD
:2010600024F310AF0885833F85823E800885833F85823ED2AFC8F0A3E9F0A3EAF0A3EBF042
:20108000A37921E709F0A3D8FAECF0A3EDF0A3EEF0A3EFF0A3D0E0F0A3D0E0F0A3D0E0F096
:2010A000A3E520F0A3E5F0F0A322853F83853E82E0C0E0A3E0F9A3E0FAA3E0FBA37821E0CC
:2010C000F608A3DFFAE0FCA3E0FDA3E0FEA3E0FFA3E0C0E0A3E0C0E0A3E0F5D0A3E0F52011
:2010E000A3E0A3F5F010AF0885833F85823E800885833F85823ED2AFD082D083D0E0F8D0E0
:20110000E03274048006740280027401C0E0F404120EC4D0E0120D9922740480047402805A
:2011200000CCC0E0EDC0E0E53EC39CCCAD3F50011D10AF068C3E8D3F80068C3E8D3FD2AF16
:20114000120DA6D0E0FDD0E0FC22D083D082E9C0E0E493A3C386F0C5F095F0F908E493A379
:2011600086F0C5F095F0700BE493A3C3994005E9048002A3E475F002A42582F582E5F03560
:2011800083F583D0E0F9E493A3C0E0E493C0E022D083D082ECC0E0EDC0E0E493A3FCE4936D
:2011A000A3FDED4C600D1211DCEC24FFFCED34FFFD80EFE493A3FCE493A3FDED4C600D126E
:2011C000121BEC24FFFCED34FFFD80EFD0E0FDD0E0FCE493A3C0E0E493C0E022C0E0C3E4B8
:2011E0009396087401939618400FE49366700808740193661870007019A3A3C3E4939608BF
:201200007401939618A3A3400DD0E0D0E0D0E00211CCA3A3A3A3A3A3D0E022C0E0C0F0881A
:20122000F0E4936670080874019366187000A8F0A3A3700BD0F0D0E0D0E0D0E00211CCA3C0
:20124000A3D0F0D0E022D083D082ECC0E0EDC0E0EEC0E0EFC0E0E493A3FCE493A3FDE493DA
:20126000A3FEE493A3FFEF4E4D4C60151212C2EC24FFFCED34FFFDEE34FFFEEF34FFFF809B
:20128000E5E493A3FCE493A3FDE493A3FEE493A3FFEF4E4D4C60151212FFEC24FFFCED3471
:2012A000FFFDEE34FFFEEF34FFFF80E5D0E0FFD0E0FED0E0FDD0E0FCE493A3C0E0E493C0E6
:2012C000E022C0E0C0F088F0120BF8A8F04007120BA0A8F0701AA3A3A3A3120BF8A8F0A395
:2012E000A3A3A34013D0F0D0E0D0E0D0E00212ACA3A3A3A3A3A3A3A3A3A3D0F0D0E022C072
:20130000E0C0F088F0120BA0A8F0A3A3A3A3700BD0F0D0E0D0E0D0E00212ACA3A3D0F0D003
:20132000E022FFFF74F5120F5FEAFEEBFFEE2434F8EF3400F988218922EE2435121450F88F
:20134000EE2437121450F523EC8523F0A4FCAAF08523F0EDA42AFDE82CF8E43DF97A257B68
:2013600000120E08EA852182852283F074075AF87401B800028004C333D8FCFBEA131313B1
:20138000541FF8EE28F8EF3400F9E8245DF582E91214535B6003EA801CEE2436121450F57F
:2013A000F0EA84A8F0EE28F8EF3400F9E82438F582E9121453F97F0402100B74F5120F5F6E
:2013C000EAFEEBFFEE2434121450C0E0EE2435F582EF3400F583D0E0F08E828F83A3A3A3DB
:2013E000A3A3E0FAA3E0FB8E828F83A3A3A3A3A3A3A3E0FCA3E0FDECC39AF523ED9BF5245A
:20140000EE247FF521EF3400F522852182F583E06401702BEE2480F582EF3400F5831211A4
:201420001D1214597402120EA9E960137CE27D04EEFAEFFB1223A3852182852283E4F0AC1A
:2014400023AD24EEFAEFFB121324121C7F0213B6F582EF3400F583E022C082C083853E8227
:20146000853F83E0F8A3E0F9C3EA9CEB9D5010C3EC98ED99401BC3EA98EB995014800EC3FA
:20148000EA98EB994007C3EC98ED994004790180027900D083D08222EAC39CFAEB9DFB22CA
:2014A00074ED120F5F9003A8E064086005E06407702C9061C8E060269003D6E0F874FF683D
:2014C000601CE875F003A4C8AAF02AF974D828FE740339FF8E828F83A3A3A3E0700579001D
:2014E000021640EE2468F529EF3400F52A906060E0852982852A83F075234B752405752121
:2015000000752200E5D914F527E5D95403F528601CEE2482F525EF3400F526740365286048
:2015200058E5276013EE2467121450700B793DEEFAEFFB1223C780A6900546E0640160261A
:20154000852582852683E06004780480027800852721E521C398FA95E0FB1222538A218B22
:2015600022EA4522700612260D0214DE852582852683E070048A238B2478008016E5D9C0B3
:20158000E0882BE523252BF582E5243400F583D0E0F008E8C3952740E4852582852683E0C7
:2015A000602874FC2527F5277823121106AC27A928EEFAEFFB1224757402120EA9E9700A44
:2015C000AA21AB2212290702152D7403652860588527257526007825121106AC23AD24AAB5
:2015E00021AB221224397402120EA9852982852A83E0F8748068700575257F80028825E517
:2016000025F523782312110AE528F523782312110AA927AC21AD229003D6E0FA7B0012207C
:20162000F77402120EA980139003A8E06408600BAC23AD24EEFAEFFB12250B122619790170
:201640007F0C02100B74F3120F5F74FC120E93EAFEEBFF8921A2AFE433F522C2AFEE2463F7
:20166000F523EF3400F5248010AA23AB241223F11229079004E9E004F0852382852483E0FB
:20168000F8A3E0F9E849602FE82402FAE93400FBEA2402F525EB3400F52678251211068A42
:2016A000828B83E0FCA3E0F9EEFAEFFB1223E57402120EA9E960B29004E9E060579004EA8A
:2016C000E0F89004E9E0C398500C7402652170449004EBE0603E8E828F83A3A3A3A3E0855E
:2016E0003E82853F831217247402120EDFE81217249004E8E028F07402120EDFAC82AD83A5
:20170000853E82853F83AA82AB8379011220FD9004E9E4F0E522A2E092AF7404120EA97F5F
:201720000602100BF0A3E4F09004E9E0F822FFFF8540878541C622C0E074EF12104BA2AFEF
:20174000E433FEC2AF759B00906182E0A2E05012E591A2E0500C7591FE74016540700312C5
:2017600014A0E0A2E55051E591A2E5504B7591DF9003A8E064076005E0640870237401658C
:2017800040703579019003D6E0FA75F003A4CAA8F028FB74D82AFA74033BFB1216458018F4
:2017A000E0640D70139003CAE004F064287002E4F07A00E0F912261F906182E0A2E640038A
:2017C00002185EE591A2E6400302185E7591BF9003A8E06405700812254D1225598003126E
:2017E00025537540001225BFE99003A9F079001225B31223137A017B009003A7E0F91228C3
:20180000D1907803E06442705590054AE014F0704DC2AF121816007849D0E0F618D0E0F64B
:20182000E59F540770057522FF800375227FC4C0E07848E6F52108E65522F522740B782171
:20184000120E71D0E02521F8906270E0A2E740F8E8C333906272F0906270E0D2E0F09061FF
:2018600081E0A2E35009E5E9A2E3500375E9F7A3E0A2E75009E591A2E7500375917FEEA262
:20188000E092AF7F040210AAC0E0C0D0C082C083906183E0A2E05009E5BFA2E0500375BF57
:2018A000FEE0A2E15009E5BFA2E1500375BFFDE0A2E25009E5BFA2E2500375BFFBE0A2E3F7
:2018C0005009E5BFA2E3500375BFF7E0A2E45009E5BFA2E4500375BFEFE0A2E55009E5BF45
:2018E000A2E5500375BFDFE0A2E65009E5BFA2E6500375BFBFD083D082D0D0D0E032C0E001
:2019000074F212104BE5A7A2E4500FE5A1A2E4500953A7EF75A1EF121952E5A7A2E5500C44
:20192000E5A1A2E5500653A7DF75A1DFE5A7A2E15009E5A1A2E1500375A1FDE5A7A2E2503F
:201940000CE5A1A2E2500653A7FB75A1FB7F010210AA74F8120F5F7540019003A8E06406B2
:2019600070077A007B00122535A2AFE433FED2AF9003AEE0640170187A207B009003A7E06B
:20198000F91229737A207B009003A7E0F91228D7906182E0D2E6F0900547E0602185C641A3
:2019A00080169003ADE064017008E5C654F84405F5C653BEFC1217307401654060E4EEA245
:2019C000E092AF7F0102100B8E428F43858247858346853E82853F83E0CEA3E0CF85478231
:2019E000854683EBC9EAC8EDCBECCA75F010C3E833C8E933C9EA33CAEB33CBC3EA9EF54570
:201A0000EB9FF544B35004AB44AA45EC33CCED33CDD5F0DAAE42AF432274F1120F5F8A2113
:201A20008B228C238D2490BFFA7821120D25740F120EDF7825120D4B90BFFA7825120D25C0
:201A400078217925120BB990BFA6501078217925120CFD7821120BD94014800E782579212A
:201A6000120CFD7825120BD950047901800279007F0802100B74ED120F5F8A218B228C2363
:201A80008D2490BFFA7821120D257413120EDF7825120D4B90BFFA7825120D257825792181
:201AA000120BB9401178217925120CFDAA21AB22AC23AD248022752900752A00752B007581
:201AC0002C0178297925120CFD78297921120CC4AA29AB2AAC2BAD2C7F0C02100B90BFFA19
:201AE0007821120D4B8A828B837821120D387F0402100B74F5120F5F8C828D837821120D7A
:201B00004B8A828B837821120D11121B47C3E098F0A3E099121B39401E90BFFE7821120D13
:201B20004B8A828B837821120CEA8E828F83E02420F0A3E0344EF080A4F08E828F83C3E09B
:201B40009420A3E0944E22EA2404F8EB3400F9E8FEE9FF8C828D83A3A3A3A3E0F8A3E0F95C
:201B60008E828F832274F5120F5FE9FE9004FDE0FAA3E0FBEEC333F8E433F9741E28F5824B
:201B800074BF39F583E02AF521A3E03BF522782112110690BFDE120D691219C87402120E6C
:201BA000A98A218B228C238D2474107821120C8CAA21AB227F0402100B74F1120F5F8A2531
:201BC0008B268C278D28740F120EDFE0FAA3E0FB7411120EDFE0F521A3E0F5227821121142
:201BE00006EA2401F521EB3400F522E4F523F52478257921120C0C90BFB27821120D4B7892
:201C0000257921120C0CAA25AB26AC27AD281219C87402120EA98B22EA452260047A018004
:201C2000027A00EC2AFCED3400FD7413120EDFE0F8A3E0F9E8FEE9FFECF8EDF97A717B021E
:201C4000120E0888218922E4F523F5248E828F837821120D5AECF8EDF97A717B02120E0865
:201C60008A218B2274057821120E808E828F83A3A3A3A3E521F0A3E522F07F0802100BC0B8
:201C800082C083E9906000F0D083D08222C0E0C0D0E8C0E0E9C0E0A9A8D2AFC2C7E9A2E7E1
:201CA000E433F8E9A2E792AFD0E0F9D0E0F8D0D0D0E032C2AF02000022120B76CCD50712AD
:201CC0000B7643D607120B7633D707120B7638D707120B76A3CB07120B76BACB07120B765C
:201CE000EBCB07120B7626CC07120B7650CC07120B767ACC07120B7691CC07120B76A8CC07
:201D000007120B76BFCC07120B76E8CC07120B76FBCC07120B7611CD07120B7624CD0712D3
:201D20000B7699E406120B769DE506120B76D5E506120B76F8E506120B7603E606120B76A6
:201D400026E606120B7635E706120B760AE806120B7685E806120B760DE906120B7648E9D8
:201D600006120B767FE906120B760DEA06120B76E6EA06120B7646EB06120B7651EB0612B2
:201D80000B76D0EB06120B76D3EB06120B76D6EB06120B7665EC06120B7668EC06120B76E6
:201DA00098EC06120B76C2EC06120B76B0ED06120B7662EE06120B7627AF07120B764FAF32
:201DC00007120B767DAF07120B76B4AF07120B7612B007120B765DB007120B76A8B0071232
:201DE0000B76E8B007120B762EB107120B765CB107120B7619B207120B7623B207120B763C
:201E000030B207120B7663B207120B762FB307120B763BB307120B7653B307120B765DB3E3
:201E200007120B7603D507120B761BD507120B7633D507120B763BC206120B7617C30612E2
:201E40000B767BC406120B76D2C406120B7653C506120B7643C606120B7690C606120B76B8
:201E600016C706120B7648C706120B765CC906120B769EC906120B76BCC906120B763FCA5F
:201E800006120B7613CB06120B76DBCB06120B76E29107120B76B59207120B765E930712FB
:201EA0000B76B19307120B76619407120B76ED9407120B76D99507120B76089607120B76D9
:201EC0001B9707120B76639707120B76389807120B76749807120B76909807120B76FDB79C
:201EE00007120B7623B807120B763FB907120B7649B907120B767EBA07120B7676BB071289
:201F00000B7614A507120B7644A607120B7677A607120B76C1A607120B7688A807120B76E7
:201F2000008006120B766A8006120B76C98106120B76D98106120B76068206120B7662822A
:201F400006120B76698306120B76338406120B76938506120B76DC8506120B7629860612A1
:201F60000B764F8606120B765D8806120B76628806120B76678A06120B76B48A06120B7610
:201F8000278B06120B765A8B06120B76FC8B06120B76A58C06120B76DD8C06120B76E08C20
:201FA00006120B76288D06120B76688D06120B764F3D00120B76673D00120B76AF3D001258
:201FC0000B76C53D00120B760C3E00120B76203F00120B76AD3F00120B764BC005120B76FA
:201FE00086C005120B76CBC005120B768BC105120B7611C205120B7676C205120B76A2C25D
:2020000005120B76DBC205120B7619C505120B76FDC605120B76E3C805120B7626CA0512D8
:202020000B7674CC05120B7686CD05120B76D1CE05120B76E1CF05120B76FECF05120B7678
:2020400039D005120B765BD005120B76BED005120B767FD505120B7614D605120B7666D64C
:2020600005120B7684D605120B76DED605120B76DDD705120B7661D805120B763BAA07126F
:202080000B7645AA07120B7688AA07120B76A3AA07120B7633AB07120B765BAB07120B766B
:2020A00098AB07120B76CFAB07120B76F8AB07120B766DAC07120B7682AC07120B7697AC34
:2020C00007120B76D8AC07120B7612AD07120B763EAD07120B766CAD07120B76B7AD07123A
:2020E0000B7661AE07120B76AAAE07120B76D4AE07120B76FFAE07120B76E9D107120B760D
:2021000019A906120B7667AA06120B7647AB06120B7666AB06120B76E3AB06120B7626AC8C
:2021200006120B767CAD06120B763DAE06120B76C4B006120B7665B106120B765BB20612DF
:202140000B7658B306120B76B2B406120B763DB506120B768ED007120B76F7D007120B7677
:202160004BD107120B7672D107120B76A3D107120B7668FB05120B76D5FB05120B761CFC43
:2021800005120B7634FD05120B7630FE05120B7613FF05120B76798907120B76BB89071275
:2021A0000B768D8A07120B76668B07120B76608C07120B76428D07120B76AB8D07120B76A1
:2021C000618E07120B76D58E07120B76418F07120B766A8F07120B76E48F07120B767D9062
:2021E00007120B76E29007120B76F79007120B763D9107120B76569107120B76BB910712CA
:202200000B76BE9107120B761FC207120B7647C207120B7685C207120B7643C307120B76B5
:20222000AAC307120B76C6C307120B76EEC307120B761EC407120B762DC407120B76AAC4B4
:2022400007120B7655EA05120B76F3EB05120B760EEE05120B764AEE05120B7677EE0512B7
:202260000B765CEF05120B76A3EF05120B76E7EF05120B7614F005120B765FF005120B76DF
:202280009FF005120B76CDF005120B761FF105120B76AFF105120B764DF405120B7663F6B0
:2022A00005120B76A1F605120B7632F805120B7677F805120B76EEF805120B7638F90512C8
:2022C0000B7659F905120B76FDF905120B76008007120B767F8007120B76418607120B76F1
:2022E000508707120B76B88807120B764F8907120B76D02900120B76192A00120B76462A4F
:2023000000120B76792A00120B76862A00120B76922A00120B76A42A00120B768B2B001239
:202320000B76E92B00120B761E2C00120B76612D00120B76B82D00120B76252E00120B7619
:20234000E32E00120B769C2F00120B76093000120B76BB3000120B76CB3000120B76523120
:2023600000120B76113200120B763E3200120B76B73200120B76143300120B765E330012F8
:202380000B76F43300120B76BF3400120B76743500120B76E93500120B764A3600120B767C
:2023A000B43600120B76ED3600120B768F3700120B769F3800120B76DF3800120B76FC3849
:2023C00000120B761B3900120B76623900120B76873900120B76B43900120B762E3A001208
:2023E0000B766F3A00120B76933B00120B76433C00120B769A3C00120B76043D00120B7670
:202400001D3D00120B76D3EE06120B7626EF06120B7632EF06120B7607F006120B762EF05F
:2024200006120B7669F006120B76D5F006120B7611F106120B764AF106120B7662F10612D9
:202440000B76B7F106120B76D0F106120B7619F206120B762CF206120B7646F206120B7634
:202460005CF206120B768FF306120B76D6F406120B76D8F506120B76D2F606120B76FB3FF6
:2024800000120B76DD9B06120B760D9C06120B76D59F06120B762CA106120B76F5A1061235
:2024A0000B7675A306120B7646A406120B7683A406120B76A6A406120B76E4A406120B76A3
:2024C000EDA406120B7637A506120B7641A506120B76EBA506120B76C4A606120B7618A7F3
:2024E00006120B767AA706120B76CDA706120B76FCA706120B7639A806120B76C8D805120F
:202500000B762FDC05120B7635DC05120B76B7E105120B7630E605120B7606EA05120B7688
:2025200080BB07120B76F6BB07120B760CBC07120B764DBC07120B7687BC07120B7600BDDC
:2025400007120B763BBD07120B76AEBD07120B76ECBD07120B76F5BD07120B7601BE0712E3
:202560000B761DBE07120B7648BE07120B765EBE07120B76A2BE07120B76D2BE07120B76EB
:20258000E5BE07120B76FFBE07120B7628BF07120B766BBF07120B76AABF07120B76E8BFB8
:2025A00007120B764DC007120B7662C007120B766DC007120B767AC007120B7691C0071219
:2025C0000B769FC007120B76AAC007120B76B6C007120B76C9C007120B76D4C007120B761C
:2025E000F1C007120B7601C107120B7617C107120B7633C107120B763EC107120B7653C187
:2026000007120B7667C107120B76C8C107120B76CEC107120B76D4C107120B76DAC107122F
:202620000B76ECC107120B765A8E06120B76E68E06120B76459006120B76669206120B7645
:20264000529306120B76879306120B76A99306120B76589406120B76509606120B76799661
:2026600006120B760B9706120B763D9706120B764A9706120B76A19706120B76C797061258
:202680000B76349A06120B76379B06120B768F9B06120B761DCE06120B7627CE06120B7612
:2026A00049CE06120B7655CE06120B76EECF06120B761DD006120B7639D106120B7692D1CC
:2026C00006120B7606D306120B7673D306120B76AED306120B76EDD306120B76A6D6061209
:2026E0000B76C0D606120B764CD706120B765AD706120B76B3D706120B76C1D706120B7650
:2027000034D806120B7698D806120B76E2D806120B766BD906120B768DD906120B76B3DB4E
:2027200006120B76C8DE06120B76E0DF06120B7693E006120B7675E106120B764BCD07123D
:202740000B7670CD07120B76E2CD07120B769DF806120B76A6F806120B76AFF806120B7633
:2027600086F906120B7637FB06120B766DFB06120B76A7FB06120B76DDFB06120B7617FCB6
:2027800006120B764BFC06120B7677FC06120B76C0FC06120B76FAFC06120B7643FD061278
:2027A0000B769BFD06120B76D0FD06120B762BFE06120B7665FE06120B76B6FE06120B76F6
:2027C000ECFE06120B7626FF06120B7649FF06120B76D73F00120B76E13F00120B76F13F4B
:2027E00000120B76F2C407120B7617C507120B7692D707120B7640D807120B764CD807128E
:202800000B76E9FF06120B7683D607120B7693D607120B769CD607120B76E0D607120B7664
:2028200002D307120B7686D307120B76ECD307120B76059907120B76429907120B765E9939
:2028400007120B76319A07120B76199B07120B767A9C07120B76E69C07120B76C69D0712E3
:202860000B764E9E07120B765B9F07120B76D9D707120B76EBD707120B769F9F07120B763F
:20288000A99F07120B76E99F07120B7632A007120B766CA007120B76C2A007120B76E1A0A5
:2028A00007120B76EAA007120B763BA107120B7664A107120B766EA107120B76DFA1071203
:2028C0000B766DA207120B76C2A207120B76F0A207120B766CA307120B76AFA307120B760F
:2028E000ECA307120B76FEA307120B761AA407120B7623A407120B76E8A407120B763BD783
:2029000007120B76F0CE07120B7641CF07120B76CACF07120B7630D007120B7661C707120D
:202920000B768BC707120B7654C807120B762FC907120B7605D407120B76A1C907120B766B
:20294000D7C907120B7610CA07120B7669CB07120B76E4B307120B76F9B307120B76ACB424
:2029600007120B76ECB407120B7605B507120B7638B507120B7685B507120B76B9B507124D
:202980000B76FBB507120B76BEB506120B765DB906120B76B7B906120B76D6B906120B7680
:2029A00033BA06120B76A1BB06120B768CBC06120B76C1C006120B768BC106120B7614D8D0
:2029C00007120B76D5FF05FFFFFFFFFFFFFFFFFFC082C0839061907404F0A37448F0A3E449
:2029E000F09061807440F09061BC7407F09061877469F09061B67416F07900122319790212
:202A000012231F9029CCE493F46006E493F91222F57905122601022DB1C082C083E9540F0B
:202A2000F9906185E0696012E5C654804449F5C6E59E547F644970F8E9F053C680E59E54F1
:202A40007F70FA022DB174F7120EF3E5A8FE53A87E122301C2BA539AFEC289759B00C2C2AF
:202A600012230775A91175B90512230DD2BA439A0174805E42A8023348C082C0839061815C
:202A8000E4F0A3022DAE75E90075910075BF00020B73C082C083906181E4F0A374C0F0A395
:202AA000E4022DB0C082C08374F8120E939003AA123CE17003022B839003AAE054406023EC
:202AC0007908853E82853F83AA82AB8312240F853E82853F83AA82AB831220DF9003AAE036
:202AE00054BFF0E054806010790C7A6B7B0512240F9003AAE0547FF0E0A2E0500F79001254
:202B000023191220E59003AAE054FEF0E05402600F79011223191220E59003AAE054FDF021
:202B2000E05404600F790012231F1220EB9003AAE054FBF0E05408600F790112231F1220FD
:202B4000EB9003AAE054F7F0E05410600F790212231F1220EB9003AAE054EFF0E05420608F
:202B60000F790312231F1220EB9003AAE054DFF0A3E05401600D12232B1220F19003ABE033
:202B800054FEF07408120EA9022DB1C082C083E9600514602A804F90619A7433F0A3745500
:202BA000F09061A0743AF0900545E064017009C2919003AC7467802D9003AC7461802690FA
:202BC000619A743FF0A3745AF09061A0747FF0900545E064017009D2919003AC74718005DE
:202BE0009003AC746AF0022DB1C082C083E9600B14600D14601714600C80209029C88015CD
:202C00009029C98010900545E0640170059029CA80039029CBE493906186F0022DB174EE64
:202C2000120EF374F4120E93853E82853F83AC82AD837583BF7582E27404120DA69029C82E
:202C400093F46003022D48907808E0C394025003022D287404120EDFAC82AD837583BF751F
:202C6000826C7408120DA6FC7EFF7FFF8E257D008C82858227800F74086D606D74096D6033
:202C800068740A6D60638D2175220074027821120E80122D52120D4BA922E523C9F88829EA
:202CA00074187821120C8CE5294521FAE9FBE527C333F8E433F97404120EDFE58228F5826C
:202CC000E58339123238C3E89AE99B4008E8C39AF8E99B8006EAC398F8EB99F9C3E89EE993
:202CE0009F5006E8FEE9FF8D250DEDC39413408774FF6E700374FF6F6024852521740278C1
:202D000021120E80122D52120D4B853E82853F83E5822527F582E5831236D7E521F00CECCC
:202D2000C394045003022C6875210175220078211211067402120EDFAC82AD837A727B0A1B
:202D40001228237402120EA9740C120EA97F0A020FC574482521F58274783522F583782162
:202D600022C082C083906186E0F89029CBE4936870099029CAE493906186F09061AE7468A5
:202D8000F0A3746AF090624574FBF0A304F053F4FD43FE029005457401F09061A0E0643AD0
:202DA0007004790080027901122319022DB1F0A3F0D083D082020B73C082C08375E1F190F8
:202DC00004FAE0604D1460091460511460491470501223379004F0E0F97AF17B0412259516
:202DE00090BFD6120D691225CB90BF9E120D691225A19004FBE0F91225AD79011225F512D3
:202E00002ED424161236D4744FF0A37423F07900809F12233D80BD12234380B81223498088
:202E2000B3791280EB74F4120EF375D90D9004DBE0A2E0E4331313F8122ECA484401F5D9A8
:202E40007800122F3740FB7800882174DC123C377404122F4140F275E1959004DBE0F97A78
:202E6000DC7B0412259B90092574CBF0A37422122F47122F8B122F8212309F9004FAE06435
:202E8000019004EE700B122EDD120D4B90BFB68009122EDD120D4B90BFCA7821120CD79061
:202EA000BFFA7821120D25122ED4240E1236D47821120D5A122ED424141236D47413F09099
:202EC00003A87402F07F04020FC59004F0E0C4333354C0229004EEE0F8A3E0C822123B6F41
:202EE00078212274F6120EF31230708AD97800122F3740FB78008006122FE8123125E8C320
:202F00009940F5123062122F3740FB78008008123C337405123125E8C39940F375E1959038
:202F2000092574D7F0A37422122F47122F517412F09003A802330C882174F12521F58274A4
:202F4000041232A294062212308874D1F0A3742222122F8B122F821230A39004EEE0F8A300
:202F6000E0C8240E122F7A74FF1239AC9004EEE0F8A3E0C82414122F7A22F582E83400F510
:202F80008322F0A374E9F0A3742222122F8F22122F9322F0A3747BF0A374242274F6120E10
:202FA000F3122FDD122ECA4402F5D97800122F3740FB78008006122FE8123125E8C39940A4
:202FC000F575E195900925122FF3F0A3122FF3122F547414F09003A8740402330E900500C0
:202FE000E0F9740729F5D922882174012521F58274052274E3123000123000F0A3742222C8
:20300000F0A37422F0A374E32274F6120EF312307074064AF5D97800122F3740FB78008097
:2030200006122FE8123125E8C39940F5123062122F3740FB78008008123C337405123125C7
:20304000E8C39940F375E19590092574DDF0A3742212307E122F517415F09003A874030257
:20306000330E900520122FE074044AF5D9780022122FDD9004F0E0C4333354C0FA221230F1
:2030800088747BF0A374242212308C22123099747BF0A3742412309922122F93F0A32212EF
:2030A00030A322F0900933747BF0A3742412308C747BF0A37424122F8FF022C082C08312E4
:2030C0002ED424061236D4E4022DAE74F7120EF39003D6E0F875F003A4C8AAF02AF974D84B
:2030E00028F8740339F9E82405FAE9123B82A3A3A3A3A3A3A3A3A3123C83A3A3A3A3A3A3E6
:20310000A3E024FFF8A3E034FFF98A828B83E8F0A3E9F00233487F06020FC58821744B258F
:2031200021F58274051236AEF5D90822EAFEEBFF9061D0E0F87480C398FAEE2482221231E3
:2031400044940422F582E93400F583E0F5D90AEAC32274F6120EF3EAFEEBFF9061D0E0608E
:20316000030231E675D90E75D90375D9047A008A21EE2521123C3C248B1231EB40F17A00C9
:203180008A21EE2521123C3C248312313E40F175E1957908EE248BFAEF3400FB122403799A
:2031A00004EE2483FAEF3400FB1224037C008C82AA82C3E49AF895E0F9EE28F8EF39F9E8B1
:2031C000248AF582E91236AAC0E0EE2A123C3C24AAF582E91236D7D0E0F00CECC394084029
:2031E000CD1231F48002790002330F12314494082275E195EE246FF582EF122F7D123CFE6B
:20320000EE2471F582EF122F7DE8F0A3E9F0790122C082C08375D90275D90375D90575E148
:2032200095EA246FF582EB123236EA2471F582EB123206022DB13400F583123CFE2274F611
:20324000120EF3EAFEEBFF90054B74061232AD1211067C01790312246F7402120EA975D9EA
:203260000675D903780012329240FB75E1959003A8E064087017EE246FF582EF123236EE26
:203280002471F582EF1236D7E8F0A3E9F0790102330F8821744B2521F58274051232A294EA
:2032A00005223400F583E0F5D908E8C322F075214B75220578212274F6120EF3EAFEEBFF41
:2032C0009061D0E07042790190054B740BF09003A8E06407701975214B752205782112118A
:2032E000067C01090912246F7402120EA97905740129F5D975D9037800800312311BE8C316
:203300009940F81231F18002790080037401F07F02020FC574F7120EF3EAFEEBFF75D903CD
:2033200075D90375D90DEE24DD12333975E19579041225D11231F4800FF582EF1236AEF5ED
:20334000D922A2E092AF79007F01020FC57F03020FC574012523F5D975D90378002274F5A9
:20336000120EF31233DE6004780480027800E8240BF8EAC398405575230990054B7409F066
:2033800079081233D11223FD852182852283E0601E75214B75220578211211067C09790374
:2033A000EEFAEFFB12246F7402120EA975230D123352800312311BE8C3952340F775E195B5
:2033C00079041225D112355179018002790002334DEE24E2FCEF3400FD7A4C7B052212311E
:2033E0002CF8EF1233E7223400F9882189228882F583E02274F3120EF38A218B2212355DF1
:20340000FAE5212482F523EB1234B46004780480027800E82408F8EAC39850030234AD7533
:20342000250690054B740CF09003C5E090054CF07402C0E0F97CC67D037A4D7B051223FDBE
:20344000D0E0F97CC87D031223FD852382852483E0601E75234B75240578231211067C0652
:203460007903AA21AB2212246F7402120EA975250A74012525F5D975D90378008009882326
:20348000744B2523123121E8C3952540F175E19579041225D1E521246FF582E5221232362A
:2034A000E5212471F582E522123206800279007F05020FC53400F524852382F583E02274EF
:2034C000F6120EF3EAFEEBFF12355DFCEE2482F8EF1235E060047A0480027A00EA2404FAE5
:2034E000ECC39A40607A0290054BEAF0EE24F4F582EF123567601B75214B752205782112F0
:2035000011067C027903EEFA12246F7402120EA97A0674012AF5D975D90378008003123152
:203520001BE8C39A40F875E195EE247312354AEE247F12354A12355179041225D1EE240D94
:203540001231F78002790002330FF582EF1236E622EE241DF582EF1236E6A3F0229061D003
:20356000E0F87480C398221236AE90054CF088828983E02274F6120EF312355DFEEA248274
:20358000F8EB1235E060047C0480027C00EC2404FCEEC39C40457C0290054B7407F0EA2486
:2035A000F5F582EB123567601775214B7522057821121106790312246F7402120EA97C066E
:2035C00074012CF5D975D9037800800312311BE8C39C40F875E19579018002790002330FAF
:2035E0003400F988828983E02274F5120EF3E9FEA2AFE433F523C2AF7F00EA246EF8EB3420
:2036000000F980010F88828983E0F521EFC3952150188F21EA2521FCEB3400FDEC246AF5DE
:2036200082ED1236AA6E70DC8017EA2521FAEB3400FBEA246AF582EB1236D7EE12356D04F5
:20364000F0E523A2E092AF02334D74F6120EF3A2AFE433FFC2AFEA246EF8EB123A14E01425
:20366000F07E0080218E21EA2521F8EB123C3E246BF582E91236AAC0E0E8246AF582E91284
:2036800036D7D0E0F00E8C828D83E0F8EEC39840D4EA246DF582EB1236D774FF1236DBEF9B
:2036A000A2E092AF02330FF582EB1236AE223400F583E022C082C083E5A8F8C2AFEA246AE8
:2036C000F582EB1236D7E91236DBE8A2E7A2E792AF022DB1F582E8122F7D22F0EA2469F5A7
:2036E00082EB1236E6223400F583E4F02274F2120EF38C828D83A3A3A3A3E0541FF0EA24F7
:2037000036123A0A8E828F83E4F0F525852582858223EC2523F8ED1233E7C0E0EA2523F8A8
:20372000EB123782D0E0F0752600852182852283E0F523752400E5267823120E61E523A2E4
:20374000E0502AE52533333354F82526C0E08E828F83E0F8EA28F8EB123C3E2438F582E9FE
:203760001236D7D0E0F08E828F83E004F00526E526C3940840B40525E525C39405408D02AC
:2037800031163400F9E8245DF582E9122F7D2274F6120EF39003D4E0640170030238907A2C
:2037A000009003DAE060030238907401F0A3E4F0A3F090043A04F090043FF09003DD1239E0
:2037C000A79003E704F090040DE4F09003F01239A8A3F0A3F0A3F0900457F090044BF090F6
:2037E00004407480F0A3E4F0900446F09004C21238979004CBF090045AF09004AA123897DD
:20380000A3F0A3F09004B6F09004B8F09004B4F09004CE1238978A217442123C3774041221
:2038200036D774FFF00AEAC3940440EA7A008A82A88274E228F58274041236AAC0E0743547
:2038400028F58274041236D7D0E0F00AEAC3940540DC7A008A82A88274BC28F5827403121E
:2038600036AAC0E074BA28F58274041236D7D0E0F00AEAC3940840DC9003D4E004F06401B5
:2038800070089003DCE09003D6F07AD87B0380047A007B0002330F1239ACA31239AC22C008
:2038A00082C083EA24031236A76008E4F09003D5E014F09003D4E014F070069003D674FF1E
:2038C000F08A828B83A3A3E4F09004E7E0700D9003D5E06401700579001225B3022DB1C0C7
:2038E00082C0839003DBE4F09003DAF09003D4F0A3F0A374FFF075E1F1022DB1C082C083C8
:20390000780079009003DBE0600478D8790388828983A3A3A3A3E0F9022DB174F6120EF360
:20392000EAFEEBFFEE2463F521EF3400F5228016AA21AB221223F11229079004E8E004F00A
:203940009004E9E004F0852182852283123CE170DFEEFAEFFB1223AFEEFAEFFB1224A502E1
:20396000330F74F7120EF3EAFEEBFF8E828F83A3A3A3A3E0FA7B0012212DEEFAEFFB12234B
:20398000C112248702334874F6120EF37800882174BC123C37740312354D08E8C39408403F
:2039A000ED9003BC02330CE41239AC22F0A3F0A3F0A3F02274F6120EF3EA240D123A0AECE8
:2039C0002403F8ED3400F988218922EC2407F8ED123A1412323A852182852283E0FAA3E0D1
:2039E000FB120E088E828F83E8F0A3E9123CF5852182852283E0FAA3E0FB120E088B22EA72
:203A000045226003123A2002330FF8EB3400F9E8FEE9FF223400F9E8FCE9FD8C828D8322F5
:203A20008E828F83E02401F0A3E03400F02274F6120EF3EA242E1236A7FCA3E0FDEA246F05
:203A4000123A0A780079FAECFAEDFB120E088E828F83E8F0A3E9F0780079FAECFAEDFB12EE
:203A60000E088B22EA45226003123A2002330F74F0120EF3EAFEEBFF7410120EDF782112A8
:203A80000D4B1225658A258B268C278D2890BFAE7825120CD790BFFA7825120D2578251202
:203AA00011028E828F83123B6B120D69121A197404120EA9E96003023B5B8E828F83E02401
:203AC00002F8A3E0123C3EFAE9FB8A828B837821120CEA90BFFA7821120D4B8A828B837866
:203AE00021120D38EE240BF582EF1236D7C082C0838E828F83A3A3A3A3A3E02401F8A3E056
:203B00003400F9D083D082E0687003A3E069700479018049EE2407F8EF3400F98882898332
:203B2000123A24EE2473123B627014EE2474123B7A7003A3E06D70078A828B83123A24EEBE
:203B4000247F123B627014EE2480123B7A7003A3E06D70078A828B83123A2479007F0802D0
:203B60000FC5F582EF1236AE640122123B6F22E0F8A3E0F5838882A3A322FAEF123B82E0D3
:203B80006C223400FB8A828B83E0FCA3E0FD888289832274F3120EF3E9FEECFFEA2462F509
:203BA00082EB123B656003023C2E9061D0E0F521EA24821236A7F5256004780480027800ED
:203BC0007480C39521FC95E0FDEF28F8E4123C3E2402F8E93400F9EC98ED99A2D265D03371
:203BE0004048740D120EDFE0F523A3E0F524E52560157823121106EFFCEEF912246F7402F9
:203C0000120EA974042FFF74012FF5D98ED97800800C8821E523123C37E524123125E8C306
:203C20009F40EF75E195790080067907800279FF0234AF882174212521F58222F8EF340035
:203C4000F9E82274F7120EF3A2AFE433F521C2AFEA2402F8EB3400F98A828B83E0FEA3E059
:203C6000FFEE4F600E88828983E0FAA3E0F5838A8280048A828B83123C83123C8DF0E52163
:203C8000023342ECF0A3EDF08882898322ECF0A3EDF08C828D83E4F0A32274F7120EF3EA9E
:203CA000FCEBFD7A007B00A2AFE433FEC2AF8C828D83123CE16022E8FAE9FB8A828B831293
:203CC000323A123CE7E4F0A3123CF5E849700A8C828D83A3A3E4F0A3F0EEA2E092AF02332D
:203CE00048123CFEE849228C828D83E8F0A3E9F08A828B8322F08C828D83123CFE22E0F8DB
:203D0000A3E0F922C082C0838003123D32E9F874FF28190470F4ECFAEDFB022DB1C082C0CF
:203D2000838003123D32E9F874FF28190470F4022DB18C828D83E08A828B83F08C828D83F9
:203D4000A3AC82AD838A828B83A3AA82AB8322C082C0839002E3EAF0A3EBF0D083D0820230
:203D60000B737F01020FC5C082C0838A828B83E064B07039A3E070358A828B83A3A3A3A365
:203D8000E0F87412687011EA241DF582EB3400F583E0640170178005741B6870107C017DE1
:203DA000008A828B83A3A3123F1A12216980AC74F7120EF3E99002E2F07A047B0012215128
:203DC000121F1D809D74F4120EF38A218B22EB548060309002E2E0F91228B98A238B24AE0C
:203DE00023AF24EE4F60138E828F83E064A07003121FC5EEFAEFFB1228A7AA21E522648045
:203E0000FB80047A007B007F04020FC574F5120EF374F5120E93EAFEEBFF7404120EDFAC48
:203E200082AD83121D1FE9F523EE2402F521EF3400F522E96003023EC77406120EDFE0A2CF
:203E4000E050299002E5E0F8A3E0F9E84960187404120EDF123F109002E6E0F583888212D1
:203E60000EF1E9F5238060752306805B9002E3E0F8A3E0F9E849601A7404120EDF123F109D
:203E80009002E4E0F5838882120EF1E9F523700580357523067405120EDFE0702A740612F2
:203EA0000EDFE0853E82853F83F07401120EDFE4F0A3F07403120EDFE523F0853E82853F67
:203EC00083123F10121CD18E828F83A3A3A3A3A3A3123F1AEA4B6003122907E523701D74BD
:203EE00006120EDFE0F8741268700C7405120EDFE064017007800F741B68600A7C017D005D
:203F0000123F14122169740B120EA97F03020FC5AC82AD83852182852283E0FAA3E0FB22D6
:203F200074F0120EF389218A258B268C228D237A1E7B001228A18A278B28AE27AF28EE4F67
:203F400060648E828F8374B0F0A3E522F08E828F83A3A3E525F0A3E526F08E828F83A3A365
:203F6000A3A3E523F0EE2405FAEF3400FB7410120EDFE0FCA3E0FDEC4D60157525197526F9
:203F800000782512110612287D7402120EA980097C197D007900122895EEFAEFFBA92112D4
:203FA00028AD7900800279137F08020FC574F7120EF3EAFEEBFFEE4F601A8E828F83E0F946
:203FC00074FF69600F74FE69600A12292B8E828F8374FFF0023D62C082C083E990074180FF
:203FE00008C082C083E9900742F0D083D082020B73C082C083E990074380EE020B73FFFF29
:20400000DFA3FFFF0500009442424242FFFFFFFFFFFFFFFFFFFFFFFFFFFFFFFFFFFFFFFF93
:20402000000102030405060708090A0BFFFFFFFF0243DC025518FFFFFFFFFFFFFFFFFFFFBC
:20404000FFFFFFFFFFFFFFFFFFFFFFFFFFFFFFFFFFFFFFFFFFFFFFFFFFFFFF025BB4FFFF6C
:20406000FFFFFF024F50FFFFFFFFFF025BDDFFFFFFFFFF025B8BFFFFFFFFFFFFFFFFFFFF94
:20408000FFFFFF02558EFFFFFFFFFFFFFFFFFFFFFFFFFFFFFFFFFFFFFFFFFF024E4CFFFFB9
:2040A000FFFFFFFFFFFFFFFFFFFFFF024EC8FFFFFFFFFF0253C70102B787010000A9870268
:2040C000BB87010000E38710C785030000880202BF87030000810202BB87010000E58710BB
:2040E000A785030000000002B7870100008D8602BB87010000E4871087850200000000026D
:20410000BF87030000B88602BD87010000000002BB87010000E487109785020000E6870284
:20412000BF87030000B88602BD87010000E68700005F5C535C00900100000082814782E598
:20414000810184178107830080678696837C847C86A88252830000030000010000000000AC
:2041600000000030935E9F5EFF0000B4000028002800283075A000A000A000A000000800C9
:2041800008E001F00010001000100010001000100050005000500010001000D007000000FF
:2041A0000000000F0001000500307507001000010081FF00000000FFD75FF55FDD5FFF02E7
:2041C000020208025000A0000000E80302B787010000A68702BB87010000030D02DF8701CA
:2041E0000000B90302BB87010000040D02C387010000CF0302BB87010000050D02C58701E8
:204200000000D10302BB87010000060D02C787080000D20302BB87010000070D02C9870199
:204220000000080DFF0100FF2002B787010000A08702BB870100006C0D02CB8700000000D0
:204240000002BF870300001F046D666D666D666D666D666D666D666D666D666D666D666D72
:20426000666D669769AF699169020202020202020202010D000000100102B787010000ACD5
:204280008702BB87010000AD0D02D987010000980802BB87010000AE0D02D787010000AF85
:2042A0008702BB87010000AF0D02D587010000C18702BB87010000B00D02E1870100002D35
:2042C0008502BB87010000B10D02D387010000DB8702BB87010000B20D02D1870100001523
:2042E0008602BB87010000B30D02CF87010000DF8402BB87010000B40D02CD8701000040DA
:204300008602BB87010000B50D02B187010000B60D01E803053F100AFFFF000801010003BD
:2043200002010600000000000000000000000000000000000000000000000000000000FF75
:20434000FF0110002000E803E5C754F84405F5C779012200000080FB124348B90003024390
:20436000C6E479447815B800028004F709D8FCE479597802B800028004F709D8FCE490027F
:2043800080787C790A8002F0A3D8FCD9FA78439040B67A01BA00028007E493A3F608DAF980
:2043A0007AFB7B0B9040B7789279038015E493A3AD82AE838A828B83F0A3AA82AB838D82D0
:2043C0008E83D8E9D9E77582887583C974041243EE75825375834374001243EE75D000755A
:2043E000815F754180754202759F00024358C09FF59FE473D09F22D083D082C09FE493C027
:20440000E0740193C0E0740293F59F22E066701008A3E066700A08A3E066700408A3E066CE
:2044200022E4936670130874019366700C08740293667005087403936622C3E7960809E74A
:20444000960809E7960809E796A2D265D03322C3E09608A3E09608A3E09608A3E096A2D29C
:2044600065D03322C021C3E096F52108A3E096422108A3E096422108A3E0964221A2D2651D
:20448000D033E5217001D3D02122C3E7960809E7960809E7960809E79622C3E09608A3E0EC
:2044A0009608A3E09608A3E09622C021C3E096F52108A3E096422108A3E096422108A3E03F
:2044C0009645217001D3D02122C3E49396087401939608740293960874039396220808088A
:2044E000EAC0E0EBC0E086F0E7A4FA180986F0E7A42AFA180986F0E7A42AFA180986F0E7A2
:20450000A42AFA1986F0E7A4FBE5F02AFA190886F0E7A42BFBE5F03AFA190886F0E7A42B27
:20452000FBE5F03AFA18180986F0E7A4C5F02BFBE43AFA1908E7C5F0C6A426F6E5F03BFBFC
:20454000E43AFA1886F0E7A4F6E5F00826F6E43B08F6E43A08F6D0E0FBD0E0FA22E4CFC018
:20456000E0E4CEC0E0E4CDC0E0E4CCC0E075F020E626F608E633F608E633F608E633F61884
:204580001818EC33FCED33FDEE33FEEF33FFC3EC9709ED9709EE9709EF97191919400FFFEA
:2045A000EC97FC09ED97FD09EE97FE191906D5F0BFECF709EDF709EEF709EFF7191919D0E2
:2045C000E0FCD0E0FDD0E0FED0E0FF2212463418181812455D1246231919192212462319CF
:2045E0001919080808E618181820E7E012455D12463418181822090909E719191920E7DC82
:20460000080808E618181820E70302455D12463418181812455D12463418181812462319B6
:20462000191922E4C397F709E497F709E497F709E497F722E4C396F608E496F608E496F63B
:2046400008E496F6226017080808C6A2E713C618C613C618C613C618C613C6D5E0E92260C4
:2046600016080808C6C313C618C613C618C613C618C613C6D5E0EA2270090808082260169B
:20468000181818C6C333C608C633C608C633C608C633C6D5E0EA22E627F60809E637F6080B
:2046A00009E637F60809E637F622E026F608A3E036F608A3E036F608A3E036F622E026F05F
:2046C00008A3E036F008A3E036F008A3E036F022C3E697F60809E697F60809E697F6080956
:2046E000E697F622C3E096F008A3E096F008A3E096F008A3E096F022E056F608A3E056F6A4
:2047000008A3E056F608A3E056F622E056F008A3E056F008A3E056F008A3E056F022E647E1
:20472000F60809E647F60809E647F60809E647F622E046F008A3E046F008A3E046F008A382
:20474000E046F022E066F008A3E066F008A3E066F008A3E066F022E0F608A3E0F608A3E044
:20476000F608A3E0F622E6F008A3E6F008A3E6F008A3E6F022E0FAA3E0FBA3E0FCA3E0FDCE
:2047800022EAF0A3EBF0A3ECF0A3EDF022E0FCA3E0FDA3E0FEA3E0FF22ECF0A3EDF0A3EE10
:2047A000F0A3EFF022E0F8A3E0F9A3E0FAA3E0FB22E8F0A3E9F0A3EAF0A3EBF022CAC0E019
:2047C000E6F0A308DAFAD0E0FA22CAC0E0E0A3C582CCC582C583CDC583F0A3C582CCC58227
:2047E000C583CDC583DAE6D0E0CA22C3E498F8E499F912482C8026C3E49AFAE49BFBE92069
:20480000E7E912482CE498F8E499F922C3E498F8E499F912482CE498F8E499F9C3E49AFADE
:20482000E49BFB22EB20E7CFE920E7E0B90010BB0008E88AF084F8AAF022E4FBC8FA22EB77
:2048400070227B10C833C8C933C9335007C39AC3DBF280069A50012ADBEAC833F4C8C93329
:20486000F4C9FA2275F008E4C833C8C933C933C99AC99B5004C92AC93BD5F0ECFBC833F4A6
:20488000C8E4C9FA22600D08C6A2E713C618C613C6D5E0F322600C08C6C313C618C613C6DC
:2048A000D5E0F422700422600D18C6C333C608C633C6D5E0F41822254110AF08F541400C37
:2048C00015428008F54140021542D2AF2200C0D0254110AF08F541500C05428008F54150E3
:2048E000020542D2AFD0D0222541F58210AF08F541400C15428008F54140021542D2AF8552
:204900004283222541F582E43542F583222541F8E43542F9222541FAE43542FB222541FCD0
:20492000E43542FD22E4732541C582C0E0E54234FFC583C0E0E541C3958224F810AF0885AF
:2049400083428582418008858342858241D2AFCEF0A3E520F0A37821E608F0A3DEFAEFF0E5
:20496000A3E58124FAF8E608F0A3E608F0A3E608F0A30808E608F0A3E608F0A31581158157
:20498000D0E0FED0E0F8158115811581E8C0E0EEC0E0222541C582C0E0E54234FFC583C018
:2049A000E0E541C3958224F910AF088583428582418008858342858241D2AFCEF0A3E520A0
:2049C000F0A37821E608F0A3DEFAEFF0A3E58124FBF8E608F0A3E608F0A30808E608F0A3C0
:2049E000E608F0A315811581D0E0FED0E0F815811581E8C0E0EEC0E022854283854182E0DE
:204A0000A3FEE0A3F5207821E0A3F608DFFAE0A3FFE0A3C0E0E0A3C0E0E0A3C0E0E0A3C03C
:204A2000E0E0A3C0E010AF088582418583428008858241858342D2AFD083D0820243F4851C
:204A40004283854182E0A3FEE0A3F5207821E0A3F608DFFAE0A3FFE0A3C0E0E0A3C0E0E095
:204A6000A3C0E0E0A3C0E010AF088582418583428008858241858342D2AFD083D08222C055
:204A8000D02541C582C0E0E54234FFC583C0E0E541C3958224F310AF0885834285824180C7
:204AA00008858342858241D2AFC8F0A3E9F0A3EAF0A3EBF0A37921E709F0A3D8FAECF0A39B
:204AC000EDF0A3EEF0A3EFF0A3D0E0F0A3D0E0F0A3D0E0F0A3E520F0A3E5F0F0A3228542A1
:204AE00083854182E0C0E0A3E0F9A3E0FAA3E0FBA37821E0F608A3DFFAE0FCA3E0FDA3E07F
:204B0000FEA3E0FFA3E0C0E0A3E0C0E0A3E0F5D0A3E0F520A3E0A3F5F010AF08858342854E
:204B200082418008858342858241D2AFD082D083D0E0F8D0E032740480067402800274017D
:204B4000C0E0F4041248E8D0E01247BD227404800474028000CCC0E0EDC0E0E541C39CCC57
:204B6000AD4250011D10AF068C418D4280068C418D42D2AF1247CAD0E0FDD0E0FC22D083E3
:204B8000D082C5F0E493A3C5F0C395F0F5F0E493A3C395F04005E5F0048001E475F002A422
:204BA0002582F582E5F03583F583E493A3C0E0E493C0E022D083D082E9C0E0E493A3C3864E
:204BC000F0C5F095F0F908E493A386F0C5F095F0700BE493A3C3994005E9048002A3E4753F
:204BE000F002A42582F582E5F03583F583D0E0F9E493A3C0E0E493C0E022D083D082E9C012
:204C0000E0E493A3C386F0C5F095F0F908E493A386F0C5F095F0702408E493A386F0C5F07B
:204C200095F0701908E493A386F0C5F095F0700E08E493A3C3994007E9048004A3A3A3E413
:204C400075F002A42582F582E5F03583F583D0E0F9E493A3C0E0E493C0E022D083D082CC19
:204C6000C0E0E493A36006124C851470FAE493A36006124CA41470FAD0E0FCE493A3C0E04D
:204C8000E493C0E022C0E0E493A3D39C5010E493A3C39C400AD0E0D0E0D0E0024C78A3A373
:204CA000A3D0E022C0E0E493A36C7009D0E0D0E0D0E0024C78A3A3D0E022D083D082ECC0A1
:204CC000E0EDC0E0E493A3FCE493A3FDED4C600D124D06EC24FFFCED34FFFD80EFE493A37E
:204CE000FCE493A3FDED4C600D124D45EC24FFFCED34FFFD80EFD0E0FDD0E0FCE493A3C08D
:204D0000E0E493C0E022C0E0C3E49396087401939618400FE49366700808740193661870AA
:204D2000007019A3A3C3E49396087401939618A3A3400DD0E0D0E0D0E0024CF6A3A3A3A3A3
:204D4000A3A3D0E022C0E0C0F088F0E4936670080874019366187000A8F0A3A3700BD0F007
:204D6000D0E0D0E0D0E0024CF6A3A3D0F0D0E022D083D082ECC0E0EDC0E0EEC0E0EFC0E02C
:204D8000E493A3FCE493A3FDE493A3FEE493A3FFEF4E4D4C6015124DECEC24FFFCED34FFF4
:204DA000FDEE34FFFEEF34FFFF80E5E493A3FCE493A3FDE493A3FEE493A3FFEF4E4D4C60BD
:204DC00015124E29EC24FFFCED34FFFDEE34FFFEEF34FFFF80E5D0E0FFD0E0FED0E0FDD08E
:204DE000E0FCE493A3C0E0E493C0E022C0E0C0F088F01244C9A8F04007124421A8F0701A85
:204E0000A3A3A3A31244C9A8F0A3A3A3A34013D0F0D0E0D0E0D0E0024DD6A3A3A3A3A3A3A9
:204E2000A3A3A3A3D0F0D0E022C0E0C0F088F0124421A8F0A3A3A3A3700BD0F0D0E0D0E056
:204E4000D0E0024DD6A3A3D0F0D0E022C0E074EF124A7FA2AFE433FFD2AFA889E5AB58F5D1
:204E600021605BF4F589C2C59009857401F0754300FA900982E0F9126D397E008E237524B4
:204E800000740278231248A4124F38EA4B7028124F2CB800028004C313D8FCA2E0501875C9
:204EA0002300752401EE78231248A4AA23AB24900280E0F9126C9D0EEEC3940440BEEFA226
:204EC000E092AF7F04024ADEC0E074EF124A7FA2AFE433FFD2AFA88AE58D58F521604BF48D
:204EE000F58AC2EB7E008E23752400740278231248A4124F3874406A4B7028124F2CB800D0
:204F0000028004C313D8FCA2E05018752300752401EE78231248A4AA23AB24900280E0F937
:204F2000126C9D0EEEC3940440BC8092E8131313541F5407F8E52122740F2523F582740B21
:204F40003524F583E0F8A3E0F9E854C0FAE9FB22C0E074EF124A7FA2AFE433FFD2AFA88B37
:204F6000E5AC58F521604BF4F58BC2E87E008E23752400740278231248A4124F3874806A9B
:204F80004B7028124F2CB800028004C313D8FCA2E05018752300752401EE78231248A4AA6C
:204FA00023AB24900280E0F9126C9D0EEEC3940440BC024EBE74F5124993EAFEEBFFEE245D
:204FC00034F8EF3400F988218922EE24351250E1F8EE24371250E1F523EC8523F0A4FCAA41
:204FE000F08523F0EDA42AFDE82CF8E43DF97A257B0012482CEA852182852283F074075AAA
:20500000F87401B800028004C333D8FCFBEA131313541FF8EE28F8EF3400F9E8245DF58288
:20502000E91250E45B6003EA801CEE24361250E1F5F0EA84A8F0EE28F8EF3400F9E8243819
:20504000F582E91250E4F97F04024A3F74F5124993EAFEEBFFEE24341250E1C0E0EE24350A
:20506000F582EF3400F583D0E0F08E828F83A3A3A3A3A3E0FAA3E0FB8E828F83A3A3A3A327
:20508000A3A3A3E0FCA3E0FDECC39AF523ED9BF524EE247FF521EF3400F522852182F58348
:2050A000E06401702BEE2480F582EF3400F583124B511250EA74021248CDE960137CE27D9E
:2050C00005EEFAEFFB126595852182852283E4F0AC23AD24EEFAEFFB124FB5125B7D025003
:2050E00047F582EF3400F583E022C082C083854182854283E0F8A3E0F9C3EA9CEB9D5010B9
:20510000C3EC98ED99401BC3EA98EB995014800EC3EA98EB994007C3EC98ED994004790111
:2051200080027900D083D08222EAC39CFAEB9DFB2274ED1249939004A8E064086005E06445
:2051400007702C9061C8E060269004D6E0F874FF68601CE875F003A4C8AAF02AF974D82807
:20516000FE740439FF8E828F83A3A3A3E0700579000252D1EE2468F529EF3400F52A9060B9
:2051800060E0852982852A83F0752362752406752100752200E5D914F527E5D95403F52897
:2051A000601CEE2482F525EF3400F526740365286058E5276013EE24671250E1700B793D5F
:2051C000EEFAEFFB1265B980A690065DE064016026852582852683E06004780480027800D5
:2051E000852721E521C398FA95E0FB1264038A218B22EA4522700612686502516F852582B2
:20520000852683E070048A238B2478008016E5D9C0E0882BE523252BF582E5243400F5830D
:20522000D0E0F008E8C3952740E4852582852683E0602874FC2527F5277823124B3AAC279C
:20524000A928EEFAEFFB12666774021248CDE9700AAA21AB22126CD30251BE74036528606E
:20526000588527257526007825124B3AAC23AD24AA21AB2212662B74021248CD8529828509
:205280002A83E0F8748068700575257F80028825E525F5237823124B3EE528F52378231246
:2052A0004B3EA927AC21AD229004D6E0FA7B0012629B74021248CD80139004A8E064086013
:2052C0000BAC23AD24EEFAEFFB12672112687179017F0C024A3F74F312499374FC1248B766
:2052E000EAFEEBFF8921A2AFE433F522C2AFEE2463F523EF3400F5248010AA23AB241265D6
:20530000E3126CD39005E9E004F0852382852483E0F8A3E0F9E849602FE82402FAE9340078
:20532000FBEA2402F525EB3400F5267825124B3A8A828B83E0FCA3E0F9EEFAEFFB1265D748
:2053400074021248CDE960B29005E9E060579005EAE0F89005E9E0C398500C7402652170C8
:20536000449005EBE0603E8E828F83A3A3A3A3E08541828542831253B57402124903E812E3
:2053800053B59005E8E028F07402124903AC82AD83854182854283AA82AB8379011262A1E3
:2053A0009005E9E4F0E522A2E092AF74041248CD7F06024A3FF0A3E4F09005E9E0F822FF44
:2053C0008551878552C622C0E074EF124A7FA2AFE433FEC2AF759B00906182E0A2E05012B5
:2053E000E591A2E0500C7591FE740165517003125131E0A2E55051E591A2E5504B7591DF9E
:205400009004A8E064076005E06408702374016551703579019004D6E0FA75F003A4CAA8B5
:20542000F028FB74D82AFA74043BFB1252D68018E0640D70139004CAE004F064287002E481
:20544000F07A00E0F9126877906182E0A2E640030254EEE591A2E640030254EE7591BF90DC
:2054600004A8E06405700812676312676F80031267697551001267EDE99004A9F0790012C9
:2054800067CF1264ED7A017B009004A7E0F9126C9D907803E064427055900661E014F070AD
:2054A0004DC2AF1254A600785AD0E0F618D0E0F6E59F540770057522FF800375227FC4C0E5
:2054C000E07859E6F52108E65522F522740B7821124895D0E02521F8906270E0A2E740F8AB
:2054E000E8C333906272F0906270E0D2E0F0906181E0A2E35009E5E9A2E3500375E9F7A3C8
:20550000E0A2E75009E591A2E7500375917FEEA2E092AF7F04024ADEC0E0C0D0C082C083DF
:20552000906183E0A2E05009E5BFA2E0500375BFFEE0A2E15009E5BFA2E1500375BFFDE04A
:20554000A2E25009E5BFA2E2500375BFFBE0A2E35009E5BFA2E3500375BFF7E0A2E45009A0
:20556000E5BFA2E4500375BFEFE0A2E55009E5BFA2E5500375BFDFE0A2E65009E5BFA2E64D
:20558000500375BFBFD083D082D0D0D0E032C0E074F2124A7FE5A7A2E4500FE5A1A2E450F0
:2055A0000953A7EF75A1EF1255E2E5A7A2E5500CE5A1A2E5500653A7DF75A1DFE5A7A2E1FC
:2055C0005009E5A1A2E1500375A1FDE5A7A2E2500CE5A1A2E2500653A7FB75A1FB7F0102AF
:2055E0004ADE74F81249937551019004A8E0640670077A007B0012674BA2AFE433FED2AFC5
:205600009004AEE0640170187A207B009004A7E0F9126D697A207B009004A7E0F9126CA320
:20562000906182E0D2E6F090065EE0602185C65280169004ADE064017008E5C654F84405A9
:20564000F5C653BEFC1253C07401655160E4EEA2E092AF7F01024A3F8E538F54858258858A
:205660008357854182854283E0CEA3E0CF855882855783EBC9EAC8EDCBECCA75F010C3E80C
:2056800033C8E933C9EA33CAEB33CBC3EA9EF556EB9FF555B35004AB55AA56EC33CCED33DE
:2056A000CDD5F0DAAE53AF542274E912499374FA1248B7EAFEEBFF8C218D229004A8E02420
:2056C000F7C3940550067529010257D41266C18A238B24EA452470030257D11267818A2527
:2056E0008B26126781EA65257003EB652660ECEEFCEFFD854182854283AA82AB8312678794
:20570000852382852483A3A3782512475790870878251246F8854182854283782D124757AD
:20572000908708782D1246F87825792D12448A501F7825792D1246D090874478251244AA60
:20574000404785252985262A85272B85282C8045908744852D29852E2A852F2B85302C785A
:205760002979251246D078291244AA501C752900752A00752B00752C017829792D1246D03F
:2057800078297925124697800C752901752A00752B00752C00740978291246789086E07874
:2057A000251247577829792512455D9004A8E06408600AE064066005E06405702090874848
:2057C00078291244AA501690874C78291246AA800C752900752A00752B00752C008521828A
:2057E000852283782912476674061248CD7F10024A3F74F712499312679990065CE06401C2
:205800007010906245E4F0A3F053F4F343FE0C5390F3126739E5C654804449F5C6E59E54BD
:205820007F644970F8906185740FF090065AE0F47002A3E0602C75210175220090065AE0A8
:2058400078211248A4E521F4FAA3E0600814600A14600C800DEA52808008EA52908003EACA
:2058600052A079007F02024A3F74F7124993E9FEEAFF74016E700C7A807B009004A7E0F9A0
:20588000126C9D906DDCE493F46008E493F91264CF800953C680E59E547F70FA12673F9062
:2058A000065CE06401700312650590065AE0F47002A3E0602A75210175220090065AE07899
:2058C000211248A4AA21A3E0600814600A14600C800DEA42808008EA42908003EA42A01217
:2058E00066C18A218B22A821A922E8496017E5E170FCE82414F582E93400F583E0F874FF44
:2059000068600288E174016F700A7A019004A7E0F9126D3902586474F11249938A218B2246
:205920008C238D2490870878211246F8740F124903782512475790870878251246F878212C
:20594000792512448A9087445010782179251246D078211244AA4014800E782579211246A5
:20596000D078251244AA50047901800279007F08024A3F74ED1249938A218B228C238D24D8
:2059800090870878211246F87413124903782512475790870878251246F878257921124434
:2059A0008A4011782179251246D0AA21AB22AC23AD248022752900752A00752B00752C0154
:2059C000782979251246D078297921124697AA29AB2AAC2BAD2C7F0C024A3F908708782110
:2059E0001247578A828B83782112470B7F04024A3F74F51249938C828D8378211247578A8A
:205A0000828B8378211246E4125A45C3E098F0A3E099125A37401E90875078211247578AEE
:205A2000828B8378211246BD8E828F83E02420F0A3E0344EF080A4F08E828F83C3E0942070
:205A4000A3E0944E22EA2404F8EB3400F9E8FEE9FF8C828D83A3A3A3A3E0F8A3E0F98E82C1
:205A60008F832274F5124993E9FE9005FDE0FAA3E0FBEEC333F8E433F974E728F5827485EB
:205A800039F583E02AF521A3E03BF5227821124B3A90878C12477512565874021248CD8AD8
:205AA000218B228C238D247410782112465FAA21AB227F04024A3F74F11249938A258B268B
:205AC0008C278D28740F124903E0FAA3E0FB7411124903E0F521A3E0F5227821124B3AEA98
:205AE0002401F521EB3400F522E4F523F524782579211244DD9087587821124757782579E8
:205B0000211244DDAA25AB26AC27AD2812565874021248CD8B22EA452260047A0180027AB3
:205B200000EC2AFCED3400FD7413124903E0F8A3E0F9E8FEE9FFECF8EDF97A717B021248A2
:205B40002C88218922E4F523F5248E828F837821124766ECF8EDF97A717B0212482C8A21D3
:205B60008B22740578211248A48E828F83A3A3A3A3E521F0A3E522F07F08024A3FC082C016
:205B800083E9906000F0D083D08222C0E074F2124A7FA2AFE433FED2AFC2C0E5D1A2E4501C
:205BA0000653D1EF126BB3754300EEA2E092AF7F01024ADEC0E0C0D0E8C0E0E9C0E0A9A8F7
:205BC000D2AFC2C7754300E9A2E7E433F8E9A2E792AFD0E0F9D0E0F8D0D0D0E032C0E0C09C
:205BE000D0E8C0E0E9C0E0EAC0E0C082C083A2AFE433FAD2AF900B09E0F8A3E068700853A0
:205C00009AFBA374018022C2E9900B09E0F8740128F0748928F582E4340AF583E0F5C19025
:205C20000B09E0C394804002E4F0EAA2E092AFD083D082D0E0FAD0E0F9D0E0F8D0D0D0E0E6
:205C400032C2AF020000221243F71D90041243F7B590041243F78E92041243F7E3920412A4
:205C600043F73993041243F74E93041243F7DB93041243F76394041243F79B9C031243F712
:205C8000839D031243F7A99F031243F74FA0031243F7D0A0031243F773A2031243F738A3C2
:205CA000031243F752A3031243F7D7A3031243F772A4031243F754A5031243F78AA5031297
:205CC00043F7A6A7031243F76FA8031243F7CCA8031243F754A9031243F70080011243F7AC
:205CE0001C80011243F7F481011243F7E182011243F73D83011243F78983011243F7B983A7
:205D0000011243F70585011243F78185011243F7F685011243F76F86011243F784870112E4
:205D200043F70788011243F72C8A011243F7C391011243F71192011243F74192011243F799
:205D40009892011243F7C592011243F74CB9011243F7A1B9011243F730BA011243F7CCBD6F
:205D6000011243F759C3011243F789C3011243F7D2CA011243F7C2CB011243F70BCC011227
:205D800043F735CD011243F779CE011243F7B9CE011243F76ED0011243F7E4BE041243F795
:205DA000FBBE041243F72CBF041243F767BF041243F791BF041243F7BBBF041243F7D2BF2E
:205DC000041243F7E9BF041243F700C0041243F729C0041243F73CC0041243F752C00412BE
:205DE00043F765C0041243F78CC0041243F787B4031243F78BB5031243F7C3B5031243F778
:205E0000E6B5031243F7F1B5031243F714B6031243F723B7031243F7F8B7031243F773B838
:205E2000031243F7FBB8031243F736B9031243F76DB9031243F7FBB9031243F7D4BA0312B8
:205E400043F734BB031243F73FBB031243F7BEBB031243F7C1BB031243F7C4BB031243F720
:205E600053BC031243F756BC031243F786BC031243F7B0BC031243F79EBD031243F750BE5F
:205E8000031243F78BC8031243F783C9031243F7B7C9031243F739CA031243F781CA0312F5
:205EA00043F7E5CA031243F772CB031243F72CCC031243F73BCF031243F7C6D0031243F799
:205EC000E9D0031243F7E599041243F70D9A041243F73B9A041243F7729A041243F7D09A0A
:205EE000041243F71B9B041243F7669B041243F7A69B041243F7EC9B041243F71A9C0412C7
:205F000043F7D79C041243F7E19C041243F7EE9C041243F7219D041243F7ED9D041243F7F5
:205F2000F99D041243F7119E041243F71B9E041243F724FF031243F732FF031243F74AFF38
:205F4000031243F762FF031243F720DF021243F7CCDF021243F747E0021243F768E102122A
:205F600043F7A4E1021243F74DE2021243F734E3021243F798E4021243F7EFE4021243F747
:205F800070E5021243F760E6021243F7ADE6021243F733E7021243F765E7021243F779E985
:205FA000021243F7BBE9021243F7D9E9021243F75CEA021243F730EB021243F7F8EB02129D
:205FC00043F770EB031243F743EC031243F7ECEC031243F73FED031243F7EFED031243F792
:205FE0007BEE031243F767EF031243F796EF031243F7A9F0031243F7F1F0031243F7C6F1A1
:20600000031243F702F2031243F71EF2031243F76D7F001243F755AF041243F77BAF0412C3
:2060200043F797B0041243F7A1B0041243F7D6B1041243F7CEB2041243F7D8B2041243F76D
:20604000F68A041243F7268C041243F7598C041243F7A38C041243F76A8E041243F7B5BEFF
:20606000021243F71FBF021243F77EC0021243F708C1021243F718C1021243F745C10212C2
:2060800043F79CC1021243F745C2021243F74CC3021243F716C4021243F776C5021243F7B8
:2060A000B9C5021243F75EC6021243F7ABC6021243F7D1C6021243F7DFC8021243F7E4C85D
:2060C000021243F7E9CA021243F736CB021243F7A9CB021243F7DCCB021243F77ECC02120D
:2060E00043F727CD021243F75FCD021243F762CD021243F7AACD021243F7EACD021243F763
:2061000041CE021243F7E2B2041243F7FAB2041243F742B3041243F758B3041243F79FB350
:20612000041243F7B3B4041243F740B5041243F78BB5041243F748D1011243F754D10112E5
:2061400043F78FD1011243F7D4D1011243F794D2011243F723D3011243F7A9D3011243F7A7
:206160000ED4011243F73AD4011243F773D4011243F7B1D6011243F795D8011243F77BDA1E
:20618000011243F7BEDB011243F70CDE011243F71EDF011243F769E0011243F779E1011248
:2061A00043F796E1011243F7D1E1011243F7F3E1011243F756E2011243F717E7011243F7F1
:2061C000ACE7011243F7FDE7011243F724E8011243F776E8011243F794E8011243F7EEE80B
:2061E000011243F7D7E9011243F74DEB011243F7D1EB011243F756F9031243F760F90312AB
:2062000043F7A3F9031243F7BEF9031243F74EFA031243F776FA031243F7B3FA031243F701
:20622000EAFA031243F713FB031243F788FB031243F79DFB031243F7B2FB031243F7D4FB4A
:20624000031243F71DFC031243F732FC031243F746FC031243F76BFC031243F7A5FC03120D
:2062600043F7D1FC031243F7FFFC031243F74AFD031243F7BAFD031243F728FE031243F76D
:2062800033FE031243F75EFE031243F7A7FE031243F7D1FE031243F7FCFE031243F7D4FEA6
:2062A000011243F716EE021243F764EF021243F744F0021243F763F0021243F7E0F0021297
:2062C00043F723F1021243F779F2021243F729F3021243F762F5021243F7E9F7021243F72C
:2062E0008AF8021243F780F9021243F77DFA021243F7D7FB021243F762FC021243F7E1C3D2
:20630000041243F74AC4041243F79EC4041243F7C5C4041243F7F6C4041243F71AA3041267
:2063200043F787A3041243F7CEA3041243F7E6A4041243F7E2A5041243F7C5A6041243F77C
:206340008DDB031243F7CFDB031243F7A1DC031243F77ADD031243F774DE031243F756DF45
:20636000031243F7BFDF031243F775E0031243F7E9E0031243F755E1031243F77EE103122C
:2063800043F7F8E1031243F791E2031243F7F6E2031243F70BE3031243F751E3031243F7F2
:2063A0006AE3031243F7CFE3031243F7D2E3031243F7E3FC021243F70BFD021243F749FD73
:2063C000021243F707FE021243F76EFE021243F78AFE021243F7B2FE021243F7E2FE02129A
:2063E00043F7F1FE021243F76EFF021243F794FF021243F71295021243F7E396021243F7CE
:20640000F498021243F73099021243F75D99021243F7469A021243F78D9A021243F7CE9A3C
:20642000021243F7E09A021243F7209B021243F74D9B021243F7989B021243F7DF9B0212F8
:2064400043F70D9C021243F75F9C021243F7EF9C021243F78C9F021243F7A7A1021243F7DA
:20646000E5A1021243F75AA3021243F79FA3021243F783A4021243F78AA6021243F701A7D2
:20648000021243F74BA7021243F76CA7021243F70EA8021243F7F8A8021243F794A90212CA
:2064A00043F7FDA9021243F714D2031243F793D2031243F755D8031243F764D9031243F7BD
:2064C000CCDA031243F763DB031243F70080021243F74980021243F77680021243F7A980E8
:2064E000021243F7B680021243F7C280021243F7D480021243F7BB81021243F7198202125F
:2065000043F74E82021243F79183021243F7DE83021243F71484021243F78084021243F7DA
:206520002985021243F7D785021243F73586021243F7A586021243F70587021243F7708861
:20654000021243F77D88021243F7C888021243F72589021243F7E489021243F7118A021296
:2065600043F7898A021243F7E58A021243F72F8B021243F7C58B021243F7908C021243F7B3
:20658000458D021243F7BA8D021243F7158E021243F7858E021243F7B08E021243F7528F87
:2065A000021243F76290021243F7A290021243F7BF90021243F7DE90021243F725910212AA
:2065C00043F74A91021243F78091021243F7FA91021243F73B92021243F75F93021243F7C5
:2065E0000694021243F75D94021243F7C794021243F7E094021243F7C1BE031243F714BF68
:20660000031243F720BF031243F7F5BF031243F71CC0031243F757C0031243F7C3C00312D1
:2066200043F7FFC0031243F738C1031243F750C1031243F7A5C1031243F7BEC1031243F7E7
:2066400007C2031243F71AC2031243F734C2031243F74AC2031243F77DC3031243F7C4C440
:20666000031243F7C6C5031243F7C0C6031243F7F17F001243F71C95041243F7B295041202
:2066800043F76996041243F79396041243F78698041243F7AE99041243F738EC011243F782
:2066A0006CEC011243F756F5011243F7AAF6011243F7A3F7011243F723F9011243F705FA61
:2066C000011243F73FFA011243F762FA011243F7A4FA011243F7ADFA011243F7F7FA01125B
:2066E00043F701FB011243F7ABFB011243F784FC011243F7D8FC011243F73AFD011243F7B2
:206700008DFD011243F7BCFD011243F7F9FD011243F7E06D001243F74771001243F74D71FE
:20672000001243F7CF76001243F7487B001243F71E7F001243F7AFAB041243F725AC0412F3
:2067400043F73BAC041243F77CAC041243F7B6AC041243F72FAD041243F76AAD041243F70B
:20676000DDAD041243F71BAE041243F724AE041243F730AE041243F74CAE041243F777AE67
:20678000041243F78DAE041243F7B6AE041243F719AF041243F793F2031243F7A6F20312D1
:2067A00043F7C0F2031243F7E9F2031243F72CF3031243F76BF3031243F7A9F3031243F76E
:2067C0000EF4031243F723F4031243F72EF4031243F73BF4031243F752F4031243F760F42A
:2067E000031243F76FF4031243F784F4031243F799F4031243F7A4F4031243F7B0F4031255
:2068000043F7C3F4031243F7CEF4031243F7F1F4031243F798F5031243F7A8F5031243F72B
:20682000BDF5031243F7D7F5031243F7F2F5031243F70FF6031243F71AF6031243F7D6F687
:20684000031243F7C2F7031243F7E7F7031243F7F2F7031243F707F8031243F71BF8031206
:2068600043F77CF8031243F782F8031243F788F8031243F78EF8031243F7A6F8031243F7C1
:20688000D9F8031243F7718E031243F7F58E031243F7A48F031243F70391031243F724939C
:2068A000031243F71094031243F74594031243F76794031243F71695031243F70E97031270
:2068C00043F73797031243F7C997031243F7FB97031243F70898031243F75F98031243F79C
:2068E0008598031243F7F29A031243F7F59B031243F74D9C031243F70080031243F70A81E0
:20690000031243F7F181031243F7FB81031243F71D82031243F72982031243F7C28303125A
